{
	"data": {
		"bytecode": {
			"linkReferences": {},
			"object": "608060405260025f557fffffffffffffffffffffffffffffffffffffffffffffffffffffffffffffffff6001556040518060400160405280600f81526020017f696d67206c696e6b20746f206e66740000000000000000000000000000000000815250600290816100709190610821565b507f696d61676520746f206e667420696e206279746500000000000000000000000060035560405180608001604052806212d66f81526020016040518060400160405280600481526020017f72616669000000000000000000000000000000000000000000000000000000008152508152602001601560ff1681526020016040518060400160405280600781526020017f6e6967657269610000000000000000000000000000000000000000000000000081525081525060045f820151815f015560208201518160010190816101469190610821565b506040820151816002015f6101000a81548160ff021916908360ff160217905550606082015181600301908161017c9190610821565b5050506040518060600160405280600360ff168152602001600260ff168152602001600160ff1681525060089060036101b692919061042b565b5060405180606001604052806040518060400160405280600581526020017f616861686100000000000000000000000000000000000000000000000000000081525081526020016040518060400160405280600881526020017f736b66686461736b00000000000000000000000000000000000000000000000081525081526020016040518060400160405280600581526020017f616b6a646c000000000000000000000000000000000000000000000000000000815250815250600a90600361028192919061047b565b50604051806040016040528060405180606001604052806040518060400160405280600181526020017f330000000000000000000000000000000000000000000000000000000000000081525081526020016040518060400160405280600281526020017f343500000000000000000000000000000000000000000000000000000000000081525081526020016040518060400160405280600181526020017f3100000000000000000000000000000000000000000000000000000000000000815250815250815260200160405180606001604052806040518060400160405280600181526020017f320000000000000000000000000000000000000000000000000000000000000081525081526020016040518060400160405280600281526020017f353500000000000000000000000000000000000000000000000000000000000081525081526020016040518060400160405280600181526020017f3000000000000000000000000000000000000000000000000000000000000000815250815250815250600b9060026104199291906104d2565b50348015610425575f80fd5b506108f0565b828054828255905f5260205f2090810192821561046a579160200282015b82811115610469578251829060ff16905591602001919060010190610449565b5b509050610477919061052b565b5090565b828054828255905f5260205f209081019282156104c1579160200282015b828111156104c05782518290816104b09190610821565b5091602001919060010190610499565b5b5090506104ce9190610546565b5090565b828054828255905f5260205f2090810192821561051a579160200282015b828111156105195782518290600361050992919061047b565b50916020019190600101906104f0565b5b5090506105279190610569565b5090565b5b80821115610542575f815f90555060010161052c565b5090565b5b80821115610565575f818161055c919061058c565b50600101610547565b5090565b5b80821115610588575f818161057f91906105c9565b5060010161056a565b5090565b5080546105989061064b565b5f825580601f106105a957506105c6565b601f0160209004905f5260205f20908101906105c5919061052b565b5b50565b5080545f8255905f5260205f20908101906105e49190610546565b50565b5f81519050919050565b7f4e487b71000000000000000000000000000000000000000000000000000000005f52604160045260245ffd5b7f4e487b71000000000000000000000000000000000000000000000000000000005f52602260045260245ffd5b5f600282049050600182168061066257607f821691505b6020821081036106755761067461061e565b5b50919050565b5f819050815f5260205f209050919050565b5f6020601f8301049050919050565b5f82821b905092915050565b5f600883026106d77fffffffffffffffffffffffffffffffffffffffffffffffffffffffffffffffff8261069c565b6106e1868361069c565b95508019841693508086168417925050509392505050565b5f819050919050565b5f819050919050565b5f61072561072061071b846106f9565b610702565b6106f9565b9050919050565b5f819050919050565b61073e8361070b565b61075261074a8261072c565b8484546106a8565b825550505050565b5f90565b61076661075a565b610771818484610735565b505050565b5b81811015610794576107895f8261075e565b600181019050610777565b5050565b601f8211156107d9576107aa8161067b565b6107b38461068d565b810160208510156107c2578190505b6107d66107ce8561068d565b830182610776565b50505b505050565b5f82821c905092915050565b5f6107f95f19846008026107de565b1980831691505092915050565b5f61081183836107ea565b9150826002028217905092915050565b61082a826105e7565b67ffffffffffffffff811115610843576108426105f1565b5b61084d825461064b565b610858828285610798565b5f60209050601f831160018114610889575f8415610877578287015190505b6108818582610806565b8655506108e8565b601f1984166108978661067b565b5f5b828110156108be57848901518255600182019150602085019450602081019050610899565b868310156108db57848901516108d7601f8916826107ea565b8355505b6001600288020188555050505b505050505050565b610d6d806108fd5f395ff3fe608060405234801561000f575f80fd5b50600436106100b2575f3560e01c8063aca20a5b1161006f578063aca20a5b146101a0578063b2e95e0f146101be578063bed2a42e146101da578063cc3e57d9146101f8578063e153270e14610228578063e38bc07714610249576100b2565b80631c2e2d2e146100b6578063200e4499146100d457806320965255146101045780636422c4c8146101225780638381f58a1461015257806391c46ba714610170575b5f80fd5b6100be610267565b6040516100cb91906106c7565b60405180910390f35b6100ee60048036038101906100e99190610724565b61026d565b6040516100fb91906107d2565b60405180910390f35b61010c610329565b604051610119919061080d565b60405180910390f35b61013c60048036038101906101379190610826565b610336565b60405161014991906107d2565b60405180910390f35b61015a6103dc565b6040516101679190610869565b60405180910390f35b61018a60048036038101906101859190610826565b6103e1565b60405161019791906107d2565b60405180910390f35b6101a8610487565b6040516101b59190610869565b60405180910390f35b6101d860048036038101906101d391906109ae565b61048d565b005b6101e26104c2565b6040516101ef9190610a04565b60405180910390f35b610212600480360381019061020d9190610826565b6104ce565b60405161021f9190610a04565b60405180910390f35b6102306104ee565b6040516102409493929190610a1d565b60405180910390f35b610251610623565b60405161025e91906107d2565b60405180910390f35b60035481565b600b828154811061027c575f80fd5b905f5260205f20018181548110610291575f80fd5b905f5260205f20015f915091505080546102aa90610a9b565b80601f01602080910402602001604051908101604052809291908181526020018280546102d690610a9b565b80156103215780601f106102f857610100808354040283529160200191610321565b820191905f5260205f20905b81548152906001019060200180831161030457829003601f168201915b505050505081565b5f80600890508091505090565b600a8181548110610345575f80fd5b905f5260205f20015f91509050805461035d90610a9b565b80601f016020809104026020016040519081016040528092919081815260200182805461038990610a9b565b80156103d45780601f106103ab576101008083540402835291602001916103d4565b820191905f5260205f20905b8154815290600101906020018083116103b757829003601f168201915b505050505081565b5f5481565b600981815481106103f0575f80fd5b905f5260205f20015f91509050805461040890610a9b565b80601f016020809104026020016040519081016040528092919081815260200182805461043490610a9b565b801561047f5780601f106104565761010080835404028352916020019161047f565b820191905f5260205f20905b81548152906001019060200180831161046257829003601f168201915b505050505081565b60015481565b600981908060018154018082558091505060019003905f5260205f20015f9091909190915090816104be9190610c68565b5050565b5f600880549050905090565b600881815481106104dd575f80fd5b905f5260205f20015f915090505481565b6004805f01549080600101805461050490610a9b565b80601f016020809104026020016040519081016040528092919081815260200182805461053090610a9b565b801561057b5780601f106105525761010080835404028352916020019161057b565b820191905f5260205f20905b81548152906001019060200180831161055e57829003601f168201915b505050505090806002015f9054906101000a900460ff16908060030180546105a290610a9b565b80601f01602080910402602001604051908101604052809291908181526020018280546105ce90610a9b565b80156106195780601f106105f057610100808354040283529160200191610619565b820191905f5260205f20905b8154815290600101906020018083116105fc57829003601f168201915b5050505050905084565b6002805461063090610a9b565b80601f016020809104026020016040519081016040528092919081815260200182805461065c90610a9b565b80156106a75780601f1061067e576101008083540402835291602001916106a7565b820191905f5260205f20905b81548152906001019060200180831161068a57829003601f168201915b505050505081565b5f819050919050565b6106c1816106af565b82525050565b5f6020820190506106da5f8301846106b8565b92915050565b5f604051905090565b5f80fd5b5f80fd5b5f819050919050565b610703816106f1565b811461070d575f80fd5b50565b5f8135905061071e816106fa565b92915050565b5f806040838503121561073a576107396106e9565b5b5f61074785828601610710565b925050602061075885828601610710565b9150509250929050565b5f81519050919050565b5f82825260208201905092915050565b8281835e5f83830152505050565b5f601f19601f8301169050919050565b5f6107a482610762565b6107ae818561076c565b93506107be81856020860161077c565b6107c78161078a565b840191505092915050565b5f6020820190508181035f8301526107ea818461079a565b905092915050565b5f60ff82169050919050565b610807816107f2565b82525050565b5f6020820190506108205f8301846107fe565b92915050565b5f6020828403121561083b5761083a6106e9565b5b5f61084884828501610710565b91505092915050565b5f819050919050565b61086381610851565b82525050565b5f60208201905061087c5f83018461085a565b92915050565b5f80fd5b5f80fd5b7f4e487b71000000000000000000000000000000000000000000000000000000005f52604160045260245ffd5b6108c08261078a565b810181811067ffffffffffffffff821117156108df576108de61088a565b5b80604052505050565b5f6108f16106e0565b90506108fd82826108b7565b919050565b5f67ffffffffffffffff82111561091c5761091b61088a565b5b6109258261078a565b9050602081019050919050565b828183375f83830152505050565b5f61095261094d84610902565b6108e8565b90508281526020810184848401111561096e5761096d610886565b5b610979848285610932565b509392505050565b5f82601f83011261099557610994610882565b5b81356109a5848260208601610940565b91505092915050565b5f602082840312156109c3576109c26106e9565b5b5f82013567ffffffffffffffff8111156109e0576109df6106ed565b5b6109ec84828501610981565b91505092915050565b6109fe816106f1565b82525050565b5f602082019050610a175f8301846109f5565b92915050565b5f608082019050610a305f8301876109f5565b8181036020830152610a42818661079a565b9050610a5160408301856107fe565b8181036060830152610a63818461079a565b905095945050505050565b7f4e487b71000000000000000000000000000000000000000000000000000000005f52602260045260245ffd5b5f6002820490506001821680610ab257607f821691505b602082108103610ac557610ac4610a6e565b5b50919050565b5f819050815f5260205f209050919050565b5f6020601f8301049050919050565b5f82821b905092915050565b5f60088302610b277fffffffffffffffffffffffffffffffffffffffffffffffffffffffffffffffff82610aec565b610b318683610aec565b95508019841693508086168417925050509392505050565b5f819050919050565b5f610b6c610b67610b62846106f1565b610b49565b6106f1565b9050919050565b5f819050919050565b610b8583610b52565b610b99610b9182610b73565b848454610af8565b825550505050565b5f90565b610bad610ba1565b610bb8818484610b7c565b505050565b5b81811015610bdb57610bd05f82610ba5565b600181019050610bbe565b5050565b601f821115610c2057610bf181610acb565b610bfa84610add565b81016020851015610c09578190505b610c1d610c1585610add565b830182610bbd565b50505b505050565b5f82821c905092915050565b5f610c405f1984600802610c25565b1980831691505092915050565b5f610c588383610c31565b9150826002028217905092915050565b610c7182610762565b67ffffffffffffffff811115610c8a57610c8961088a565b5b610c948254610a9b565b610c9f828285610bdf565b5f60209050601f831160018114610cd0575f8415610cbe578287015190505b610cc88582610c4d565b865550610d2f565b601f198416610cde86610acb565b5f5b82811015610d0557848901518255600182019150602085019450602081019050610ce0565b86831015610d225784890151610d1e601f891682610c31565b8355505b6001600288020188555050505b50505050505056fea26469706673582212203956fb3c18eeb6f57b23282df51231320bcb89ab25dd755e61fa3fffe317f55164736f6c634300081a0033",
			"opcodes": "PUSH1 0x80 PUSH1 0x40 MSTORE PUSH1 0x2 PUSH0 SSTORE PUSH32 0xFFFFFFFFFFFFFFFFFFFFFFFFFFFFFFFFFFFFFFFFFFFFFFFFFFFFFFFFFFFFFFFF PUSH1 0x1 SSTORE PUSH1 0x40 MLOAD DUP1 PUSH1 0x40 ADD PUSH1 0x40 MSTORE DUP1 PUSH1 0xF DUP2 MSTORE PUSH1 0x20 ADD PUSH32 0x696D67206C696E6B20746F206E66740000000000000000000000000000000000 DUP2 MSTORE POP PUSH1 0x2 SWAP1 DUP2 PUSH2 0x70 SWAP2 SWAP1 PUSH2 0x821 JUMP JUMPDEST POP PUSH32 0x696D61676520746F206E667420696E2062797465000000000000000000000000 PUSH1 0x3 SSTORE PUSH1 0x40 MLOAD DUP1 PUSH1 0x80 ADD PUSH1 0x40 MSTORE DUP1 PUSH3 0x12D66F DUP2 MSTORE PUSH1 0x20 ADD PUSH1 0x40 MLOAD DUP1 PUSH1 0x40 ADD PUSH1 0x40 MSTORE DUP1 PUSH1 0x4 DUP2 MSTORE PUSH1 0x20 ADD PUSH32 0x7261666900000000000000000000000000000000000000000000000000000000 DUP2 MSTORE POP DUP2 MSTORE PUSH1 0x20 ADD PUSH1 0x15 PUSH1 0xFF AND DUP2 MSTORE PUSH1 0x20 ADD PUSH1 0x40 MLOAD DUP1 PUSH1 0x40 ADD PUSH1 0x40 MSTORE DUP1 PUSH1 0x7 DUP2 MSTORE PUSH1 0x20 ADD PUSH32 0x6E69676572696100000000000000000000000000000000000000000000000000 DUP2 MSTORE POP DUP2 MSTORE POP PUSH1 0x4 PUSH0 DUP3 ADD MLOAD DUP2 PUSH0 ADD SSTORE PUSH1 0x20 DUP3 ADD MLOAD DUP2 PUSH1 0x1 ADD SWAP1 DUP2 PUSH2 0x146 SWAP2 SWAP1 PUSH2 0x821 JUMP JUMPDEST POP PUSH1 0x40 DUP3 ADD MLOAD DUP2 PUSH1 0x2 ADD PUSH0 PUSH2 0x100 EXP DUP2 SLOAD DUP2 PUSH1 0xFF MUL NOT AND SWAP1 DUP4 PUSH1 0xFF AND MUL OR SWAP1 SSTORE POP PUSH1 0x60 DUP3 ADD MLOAD DUP2 PUSH1 0x3 ADD SWAP1 DUP2 PUSH2 0x17C SWAP2 SWAP1 PUSH2 0x821 JUMP JUMPDEST POP POP POP PUSH1 0x40 MLOAD DUP1 PUSH1 0x60 ADD PUSH1 0x40 MSTORE DUP1 PUSH1 0x3 PUSH1 0xFF AND DUP2 MSTORE PUSH1 0x20 ADD PUSH1 0x2 PUSH1 0xFF AND DUP2 MSTORE PUSH1 0x20 ADD PUSH1 0x1 PUSH1 0xFF AND DUP2 MSTORE POP PUSH1 0x8 SWAP1 PUSH1 0x3 PUSH2 0x1B6 SWAP3 SWAP2 SWAP1 PUSH2 0x42B JUMP JUMPDEST POP PUSH1 0x40 MLOAD DUP1 PUSH1 0x60 ADD PUSH1 0x40 MSTORE DUP1 PUSH1 0x40 MLOAD DUP1 PUSH1 0x40 ADD PUSH1 0x40 MSTORE DUP1 PUSH1 0x5 DUP2 MSTORE PUSH1 0x20 ADD PUSH32 0x6168616861000000000000000000000000000000000000000000000000000000 DUP2 MSTORE POP DUP2 MSTORE PUSH1 0x20 ADD PUSH1 0x40 MLOAD DUP1 PUSH1 0x40 ADD PUSH1 0x40 MSTORE DUP1 PUSH1 0x8 DUP2 MSTORE PUSH1 0x20 ADD PUSH32 0x736B66686461736B000000000000000000000000000000000000000000000000 DUP2 MSTORE POP DUP2 MSTORE PUSH1 0x20 ADD PUSH1 0x40 MLOAD DUP1 PUSH1 0x40 ADD PUSH1 0x40 MSTORE DUP1 PUSH1 0x5 DUP2 MSTORE PUSH1 0x20 ADD PUSH32 0x616B6A646C000000000000000000000000000000000000000000000000000000 DUP2 MSTORE POP DUP2 MSTORE POP PUSH1 0xA SWAP1 PUSH1 0x3 PUSH2 0x281 SWAP3 SWAP2 SWAP1 PUSH2 0x47B JUMP JUMPDEST POP PUSH1 0x40 MLOAD DUP1 PUSH1 0x40 ADD PUSH1 0x40 MSTORE DUP1 PUSH1 0x40 MLOAD DUP1 PUSH1 0x60 ADD PUSH1 0x40 MSTORE DUP1 PUSH1 0x40 MLOAD DUP1 PUSH1 0x40 ADD PUSH1 0x40 MSTORE DUP1 PUSH1 0x1 DUP2 MSTORE PUSH1 0x20 ADD PUSH32 0x3300000000000000000000000000000000000000000000000000000000000000 DUP2 MSTORE POP DUP2 MSTORE PUSH1 0x20 ADD PUSH1 0x40 MLOAD DUP1 PUSH1 0x40 ADD PUSH1 0x40 MSTORE DUP1 PUSH1 0x2 DUP2 MSTORE PUSH1 0x20 ADD PUSH32 0x3435000000000000000000000000000000000000000000000000000000000000 DUP2 MSTORE POP DUP2 MSTORE PUSH1 0x20 ADD PUSH1 0x40 MLOAD DUP1 PUSH1 0x40 ADD PUSH1 0x40 MSTORE DUP1 PUSH1 0x1 DUP2 MSTORE PUSH1 0x20 ADD PUSH32 0x3100000000000000000000000000000000000000000000000000000000000000 DUP2 MSTORE POP DUP2 MSTORE POP DUP2 MSTORE PUSH1 0x20 ADD PUSH1 0x40 MLOAD DUP1 PUSH1 0x60 ADD PUSH1 0x40 MSTORE DUP1 PUSH1 0x40 MLOAD DUP1 PUSH1 0x40 ADD PUSH1 0x40 MSTORE DUP1 PUSH1 0x1 DUP2 MSTORE PUSH1 0x20 ADD PUSH32 0x3200000000000000000000000000000000000000000000000000000000000000 DUP2 MSTORE POP DUP2 MSTORE PUSH1 0x20 ADD PUSH1 0x40 MLOAD DUP1 PUSH1 0x40 ADD PUSH1 0x40 MSTORE DUP1 PUSH1 0x2 DUP2 MSTORE PUSH1 0x20 ADD PUSH32 0x3535000000000000000000000000000000000000000000000000000000000000 DUP2 MSTORE POP DUP2 MSTORE PUSH1 0x20 ADD PUSH1 0x40 MLOAD DUP1 PUSH1 0x40 ADD PUSH1 0x40 MSTORE DUP1 PUSH1 0x1 DUP2 MSTORE PUSH1 0x20 ADD PUSH32 0x3000000000000000000000000000000000000000000000000000000000000000 DUP2 MSTORE POP DUP2 MSTORE POP DUP2 MSTORE POP PUSH1 0xB SWAP1 PUSH1 0x2 PUSH2 0x419 SWAP3 SWAP2 SWAP1 PUSH2 0x4D2 JUMP JUMPDEST POP CALLVALUE DUP1 ISZERO PUSH2 0x425 JUMPI PUSH0 DUP1 REVERT JUMPDEST POP PUSH2 0x8F0 JUMP JUMPDEST DUP3 DUP1 SLOAD DUP3 DUP3 SSTORE SWAP1 PUSH0 MSTORE PUSH1 0x20 PUSH0 KECCAK256 SWAP1 DUP2 ADD SWAP3 DUP3 ISZERO PUSH2 0x46A JUMPI SWAP2 PUSH1 0x20 MUL DUP3 ADD JUMPDEST DUP3 DUP2 GT ISZERO PUSH2 0x469 JUMPI DUP3 MLOAD DUP3 SWAP1 PUSH1 0xFF AND SWAP1 SSTORE SWAP2 PUSH1 0x20 ADD SWAP2 SWAP1 PUSH1 0x1 ADD SWAP1 PUSH2 0x449 JUMP JUMPDEST JUMPDEST POP SWAP1 POP PUSH2 0x477 SWAP2 SWAP1 PUSH2 0x52B JUMP JUMPDEST POP SWAP1 JUMP JUMPDEST DUP3 DUP1 SLOAD DUP3 DUP3 SSTORE SWAP1 PUSH0 MSTORE PUSH1 0x20 PUSH0 KECCAK256 SWAP1 DUP2 ADD SWAP3 DUP3 ISZERO PUSH2 0x4C1 JUMPI SWAP2 PUSH1 0x20 MUL DUP3 ADD JUMPDEST DUP3 DUP2 GT ISZERO PUSH2 0x4C0 JUMPI DUP3 MLOAD DUP3 SWAP1 DUP2 PUSH2 0x4B0 SWAP2 SWAP1 PUSH2 0x821 JUMP JUMPDEST POP SWAP2 PUSH1 0x20 ADD SWAP2 SWAP1 PUSH1 0x1 ADD SWAP1 PUSH2 0x499 JUMP JUMPDEST JUMPDEST POP SWAP1 POP PUSH2 0x4CE SWAP2 SWAP1 PUSH2 0x546 JUMP JUMPDEST POP SWAP1 JUMP JUMPDEST DUP3 DUP1 SLOAD DUP3 DUP3 SSTORE SWAP1 PUSH0 MSTORE PUSH1 0x20 PUSH0 KECCAK256 SWAP1 DUP2 ADD SWAP3 DUP3 ISZERO PUSH2 0x51A JUMPI SWAP2 PUSH1 0x20 MUL DUP3 ADD JUMPDEST DUP3 DUP2 GT ISZERO PUSH2 0x519 JUMPI DUP3 MLOAD DUP3 SWAP1 PUSH1 0x3 PUSH2 0x509 SWAP3 SWAP2 SWAP1 PUSH2 0x47B JUMP JUMPDEST POP SWAP2 PUSH1 0x20 ADD SWAP2 SWAP1 PUSH1 0x1 ADD SWAP1 PUSH2 0x4F0 JUMP JUMPDEST JUMPDEST POP SWAP1 POP PUSH2 0x527 SWAP2 SWAP1 PUSH2 0x569 JUMP JUMPDEST POP SWAP1 JUMP JUMPDEST JUMPDEST DUP1 DUP3 GT ISZERO PUSH2 0x542 JUMPI PUSH0 DUP2 PUSH0 SWAP1 SSTORE POP PUSH1 0x1 ADD PUSH2 0x52C JUMP JUMPDEST POP SWAP1 JUMP JUMPDEST JUMPDEST DUP1 DUP3 GT ISZERO PUSH2 0x565 JUMPI PUSH0 DUP2 DUP2 PUSH2 0x55C SWAP2 SWAP1 PUSH2 0x58C JUMP JUMPDEST POP PUSH1 0x1 ADD PUSH2 0x547 JUMP JUMPDEST POP SWAP1 JUMP JUMPDEST JUMPDEST DUP1 DUP3 GT ISZERO PUSH2 0x588 JUMPI PUSH0 DUP2 DUP2 PUSH2 0x57F SWAP2 SWAP1 PUSH2 0x5C9 JUMP JUMPDEST POP PUSH1 0x1 ADD PUSH2 0x56A JUMP JUMPDEST POP SWAP1 JUMP JUMPDEST POP DUP1 SLOAD PUSH2 0x598 SWAP1 PUSH2 0x64B JUMP JUMPDEST PUSH0 DUP3 SSTORE DUP1 PUSH1 0x1F LT PUSH2 0x5A9 JUMPI POP PUSH2 0x5C6 JUMP JUMPDEST PUSH1 0x1F ADD PUSH1 0x20 SWAP1 DIV SWAP1 PUSH0 MSTORE PUSH1 0x20 PUSH0 KECCAK256 SWAP1 DUP2 ADD SWAP1 PUSH2 0x5C5 SWAP2 SWAP1 PUSH2 0x52B JUMP JUMPDEST JUMPDEST POP JUMP JUMPDEST POP DUP1 SLOAD PUSH0 DUP3 SSTORE SWAP1 PUSH0 MSTORE PUSH1 0x20 PUSH0 KECCAK256 SWAP1 DUP2 ADD SWAP1 PUSH2 0x5E4 SWAP2 SWAP1 PUSH2 0x546 JUMP JUMPDEST POP JUMP JUMPDEST PUSH0 DUP2 MLOAD SWAP1 POP SWAP2 SWAP1 POP JUMP JUMPDEST PUSH32 0x4E487B7100000000000000000000000000000000000000000000000000000000 PUSH0 MSTORE PUSH1 0x41 PUSH1 0x4 MSTORE PUSH1 0x24 PUSH0 REVERT JUMPDEST PUSH32 0x4E487B7100000000000000000000000000000000000000000000000000000000 PUSH0 MSTORE PUSH1 0x22 PUSH1 0x4 MSTORE PUSH1 0x24 PUSH0 REVERT JUMPDEST PUSH0 PUSH1 0x2 DUP3 DIV SWAP1 POP PUSH1 0x1 DUP3 AND DUP1 PUSH2 0x662 JUMPI PUSH1 0x7F DUP3 AND SWAP2 POP JUMPDEST PUSH1 0x20 DUP3 LT DUP2 SUB PUSH2 0x675 JUMPI PUSH2 0x674 PUSH2 0x61E JUMP JUMPDEST JUMPDEST POP SWAP2 SWAP1 POP JUMP JUMPDEST PUSH0 DUP2 SWAP1 POP DUP2 PUSH0 MSTORE PUSH1 0x20 PUSH0 KECCAK256 SWAP1 POP SWAP2 SWAP1 POP JUMP JUMPDEST PUSH0 PUSH1 0x20 PUSH1 0x1F DUP4 ADD DIV SWAP1 POP SWAP2 SWAP1 POP JUMP JUMPDEST PUSH0 DUP3 DUP3 SHL SWAP1 POP SWAP3 SWAP2 POP POP JUMP JUMPDEST PUSH0 PUSH1 0x8 DUP4 MUL PUSH2 0x6D7 PUSH32 0xFFFFFFFFFFFFFFFFFFFFFFFFFFFFFFFFFFFFFFFFFFFFFFFFFFFFFFFFFFFFFFFF DUP3 PUSH2 0x69C JUMP JUMPDEST PUSH2 0x6E1 DUP7 DUP4 PUSH2 0x69C JUMP JUMPDEST SWAP6 POP DUP1 NOT DUP5 AND SWAP4 POP DUP1 DUP7 AND DUP5 OR SWAP3 POP POP POP SWAP4 SWAP3 POP POP POP JUMP JUMPDEST PUSH0 DUP2 SWAP1 POP SWAP2 SWAP1 POP JUMP JUMPDEST PUSH0 DUP2 SWAP1 POP SWAP2 SWAP1 POP JUMP JUMPDEST PUSH0 PUSH2 0x725 PUSH2 0x720 PUSH2 0x71B DUP5 PUSH2 0x6F9 JUMP JUMPDEST PUSH2 0x702 JUMP JUMPDEST PUSH2 0x6F9 JUMP JUMPDEST SWAP1 POP SWAP2 SWAP1 POP JUMP JUMPDEST PUSH0 DUP2 SWAP1 POP SWAP2 SWAP1 POP JUMP JUMPDEST PUSH2 0x73E DUP4 PUSH2 0x70B JUMP JUMPDEST PUSH2 0x752 PUSH2 0x74A DUP3 PUSH2 0x72C JUMP JUMPDEST DUP5 DUP5 SLOAD PUSH2 0x6A8 JUMP JUMPDEST DUP3 SSTORE POP POP POP POP JUMP JUMPDEST PUSH0 SWAP1 JUMP JUMPDEST PUSH2 0x766 PUSH2 0x75A JUMP JUMPDEST PUSH2 0x771 DUP2 DUP5 DUP5 PUSH2 0x735 JUMP JUMPDEST POP POP POP JUMP JUMPDEST JUMPDEST DUP2 DUP2 LT ISZERO PUSH2 0x794 JUMPI PUSH2 0x789 PUSH0 DUP3 PUSH2 0x75E JUMP JUMPDEST PUSH1 0x1 DUP2 ADD SWAP1 POP PUSH2 0x777 JUMP JUMPDEST POP POP JUMP JUMPDEST PUSH1 0x1F DUP3 GT ISZERO PUSH2 0x7D9 JUMPI PUSH2 0x7AA DUP2 PUSH2 0x67B JUMP JUMPDEST PUSH2 0x7B3 DUP5 PUSH2 0x68D JUMP JUMPDEST DUP2 ADD PUSH1 0x20 DUP6 LT ISZERO PUSH2 0x7C2 JUMPI DUP2 SWAP1 POP JUMPDEST PUSH2 0x7D6 PUSH2 0x7CE DUP6 PUSH2 0x68D JUMP JUMPDEST DUP4 ADD DUP3 PUSH2 0x776 JUMP JUMPDEST POP POP JUMPDEST POP POP POP JUMP JUMPDEST PUSH0 DUP3 DUP3 SHR SWAP1 POP SWAP3 SWAP2 POP POP JUMP JUMPDEST PUSH0 PUSH2 0x7F9 PUSH0 NOT DUP5 PUSH1 0x8 MUL PUSH2 0x7DE JUMP JUMPDEST NOT DUP1 DUP4 AND SWAP2 POP POP SWAP3 SWAP2 POP POP JUMP JUMPDEST PUSH0 PUSH2 0x811 DUP4 DUP4 PUSH2 0x7EA JUMP JUMPDEST SWAP2 POP DUP3 PUSH1 0x2 MUL DUP3 OR SWAP1 POP SWAP3 SWAP2 POP POP JUMP JUMPDEST PUSH2 0x82A DUP3 PUSH2 0x5E7 JUMP JUMPDEST PUSH8 0xFFFFFFFFFFFFFFFF DUP2 GT ISZERO PUSH2 0x843 JUMPI PUSH2 0x842 PUSH2 0x5F1 JUMP JUMPDEST JUMPDEST PUSH2 0x84D DUP3 SLOAD PUSH2 0x64B JUMP JUMPDEST PUSH2 0x858 DUP3 DUP3 DUP6 PUSH2 0x798 JUMP JUMPDEST PUSH0 PUSH1 0x20 SWAP1 POP PUSH1 0x1F DUP4 GT PUSH1 0x1 DUP2 EQ PUSH2 0x889 JUMPI PUSH0 DUP5 ISZERO PUSH2 0x877 JUMPI DUP3 DUP8 ADD MLOAD SWAP1 POP JUMPDEST PUSH2 0x881 DUP6 DUP3 PUSH2 0x806 JUMP JUMPDEST DUP7 SSTORE POP PUSH2 0x8E8 JUMP JUMPDEST PUSH1 0x1F NOT DUP5 AND PUSH2 0x897 DUP7 PUSH2 0x67B JUMP JUMPDEST PUSH0 JUMPDEST DUP3 DUP2 LT ISZERO PUSH2 0x8BE JUMPI DUP5 DUP10 ADD MLOAD DUP3 SSTORE PUSH1 0x1 DUP3 ADD SWAP2 POP PUSH1 0x20 DUP6 ADD SWAP5 POP PUSH1 0x20 DUP2 ADD SWAP1 POP PUSH2 0x899 JUMP JUMPDEST DUP7 DUP4 LT ISZERO PUSH2 0x8DB JUMPI DUP5 DUP10 ADD MLOAD PUSH2 0x8D7 PUSH1 0x1F DUP10 AND DUP3 PUSH2 0x7EA JUMP JUMPDEST DUP4 SSTORE POP JUMPDEST PUSH1 0x1 PUSH1 0x2 DUP9 MUL ADD DUP9 SSTORE POP POP POP JUMPDEST POP POP POP POP POP POP JUMP JUMPDEST PUSH2 0xD6D DUP1 PUSH2 0x8FD PUSH0 CODECOPY PUSH0 RETURN INVALID PUSH1 0x80 PUSH1 0x40 MSTORE CALLVALUE DUP1 ISZERO PUSH2 0xF JUMPI PUSH0 DUP1 REVERT JUMPDEST POP PUSH1 0x4 CALLDATASIZE LT PUSH2 0xB2 JUMPI PUSH0 CALLDATALOAD PUSH1 0xE0 SHR DUP1 PUSH4 0xACA20A5B GT PUSH2 0x6F JUMPI DUP1 PUSH4 0xACA20A5B EQ PUSH2 0x1A0 JUMPI DUP1 PUSH4 0xB2E95E0F EQ PUSH2 0x1BE JUMPI DUP1 PUSH4 0xBED2A42E EQ PUSH2 0x1DA JUMPI DUP1 PUSH4 0xCC3E57D9 EQ PUSH2 0x1F8 JUMPI DUP1 PUSH4 0xE153270E EQ PUSH2 0x228 JUMPI DUP1 PUSH4 0xE38BC077 EQ PUSH2 0x249 JUMPI PUSH2 0xB2 JUMP JUMPDEST DUP1 PUSH4 0x1C2E2D2E EQ PUSH2 0xB6 JUMPI DUP1 PUSH4 0x200E4499 EQ PUSH2 0xD4 JUMPI DUP1 PUSH4 0x20965255 EQ PUSH2 0x104 JUMPI DUP1 PUSH4 0x6422C4C8 EQ PUSH2 0x122 JUMPI DUP1 PUSH4 0x8381F58A EQ PUSH2 0x152 JUMPI DUP1 PUSH4 0x91C46BA7 EQ PUSH2 0x170 JUMPI JUMPDEST PUSH0 DUP1 REVERT JUMPDEST PUSH2 0xBE PUSH2 0x267 JUMP JUMPDEST PUSH1 0x40 MLOAD PUSH2 0xCB SWAP2 SWAP1 PUSH2 0x6C7 JUMP JUMPDEST PUSH1 0x40 MLOAD DUP1 SWAP2 SUB SWAP1 RETURN JUMPDEST PUSH2 0xEE PUSH1 0x4 DUP1 CALLDATASIZE SUB DUP2 ADD SWAP1 PUSH2 0xE9 SWAP2 SWAP1 PUSH2 0x724 JUMP JUMPDEST PUSH2 0x26D JUMP JUMPDEST PUSH1 0x40 MLOAD PUSH2 0xFB SWAP2 SWAP1 PUSH2 0x7D2 JUMP JUMPDEST PUSH1 0x40 MLOAD DUP1 SWAP2 SUB SWAP1 RETURN JUMPDEST PUSH2 0x10C PUSH2 0x329 JUMP JUMPDEST PUSH1 0x40 MLOAD PUSH2 0x119 SWAP2 SWAP1 PUSH2 0x80D JUMP JUMPDEST PUSH1 0x40 MLOAD DUP1 SWAP2 SUB SWAP1 RETURN JUMPDEST PUSH2 0x13C PUSH1 0x4 DUP1 CALLDATASIZE SUB DUP2 ADD SWAP1 PUSH2 0x137 SWAP2 SWAP1 PUSH2 0x826 JUMP JUMPDEST PUSH2 0x336 JUMP JUMPDEST PUSH1 0x40 MLOAD PUSH2 0x149 SWAP2 SWAP1 PUSH2 0x7D2 JUMP JUMPDEST PUSH1 0x40 MLOAD DUP1 SWAP2 SUB SWAP1 RETURN JUMPDEST PUSH2 0x15A PUSH2 0x3DC JUMP JUMPDEST PUSH1 0x40 MLOAD PUSH2 0x167 SWAP2 SWAP1 PUSH2 0x869 JUMP JUMPDEST PUSH1 0x40 MLOAD DUP1 SWAP2 SUB SWAP1 RETURN JUMPDEST PUSH2 0x18A PUSH1 0x4 DUP1 CALLDATASIZE SUB DUP2 ADD SWAP1 PUSH2 0x185 SWAP2 SWAP1 PUSH2 0x826 JUMP JUMPDEST PUSH2 0x3E1 JUMP JUMPDEST PUSH1 0x40 MLOAD PUSH2 0x197 SWAP2 SWAP1 PUSH2 0x7D2 JUMP JUMPDEST PUSH1 0x40 MLOAD DUP1 SWAP2 SUB SWAP1 RETURN JUMPDEST PUSH2 0x1A8 PUSH2 0x487 JUMP JUMPDEST PUSH1 0x40 MLOAD PUSH2 0x1B5 SWAP2 SWAP1 PUSH2 0x869 JUMP JUMPDEST PUSH1 0x40 MLOAD DUP1 SWAP2 SUB SWAP1 RETURN JUMPDEST PUSH2 0x1D8 PUSH1 0x4 DUP1 CALLDATASIZE SUB DUP2 ADD SWAP1 PUSH2 0x1D3 SWAP2 SWAP1 PUSH2 0x9AE JUMP JUMPDEST PUSH2 0x48D JUMP JUMPDEST STOP JUMPDEST PUSH2 0x1E2 PUSH2 0x4C2 JUMP JUMPDEST PUSH1 0x40 MLOAD PUSH2 0x1EF SWAP2 SWAP1 PUSH2 0xA04 JUMP JUMPDEST PUSH1 0x40 MLOAD DUP1 SWAP2 SUB SWAP1 RETURN JUMPDEST PUSH2 0x212 PUSH1 0x4 DUP1 CALLDATASIZE SUB DUP2 ADD SWAP1 PUSH2 0x20D SWAP2 SWAP1 PUSH2 0x826 JUMP JUMPDEST PUSH2 0x4CE JUMP JUMPDEST PUSH1 0x40 MLOAD PUSH2 0x21F SWAP2 SWAP1 PUSH2 0xA04 JUMP JUMPDEST PUSH1 0x40 MLOAD DUP1 SWAP2 SUB SWAP1 RETURN JUMPDEST PUSH2 0x230 PUSH2 0x4EE JUMP JUMPDEST PUSH1 0x40 MLOAD PUSH2 0x240 SWAP5 SWAP4 SWAP3 SWAP2 SWAP1 PUSH2 0xA1D JUMP JUMPDEST PUSH1 0x40 MLOAD DUP1 SWAP2 SUB SWAP1 RETURN JUMPDEST PUSH2 0x251 PUSH2 0x623 JUMP JUMPDEST PUSH1 0x40 MLOAD PUSH2 0x25E SWAP2 SWAP1 PUSH2 0x7D2 JUMP JUMPDEST PUSH1 0x40 MLOAD DUP1 SWAP2 SUB SWAP1 RETURN JUMPDEST PUSH1 0x3 SLOAD DUP2 JUMP JUMPDEST PUSH1 0xB DUP3 DUP2 SLOAD DUP2 LT PUSH2 0x27C JUMPI PUSH0 DUP1 REVERT JUMPDEST SWAP1 PUSH0 MSTORE PUSH1 0x20 PUSH0 KECCAK256 ADD DUP2 DUP2 SLOAD DUP2 LT PUSH2 0x291 JUMPI PUSH0 DUP1 REVERT JUMPDEST SWAP1 PUSH0 MSTORE PUSH1 0x20 PUSH0 KECCAK256 ADD PUSH0 SWAP2 POP SWAP2 POP POP DUP1 SLOAD PUSH2 0x2AA SWAP1 PUSH2 0xA9B JUMP JUMPDEST DUP1 PUSH1 0x1F ADD PUSH1 0x20 DUP1 SWAP2 DIV MUL PUSH1 0x20 ADD PUSH1 0x40 MLOAD SWAP1 DUP2 ADD PUSH1 0x40 MSTORE DUP1 SWAP3 SWAP2 SWAP1 DUP2 DUP2 MSTORE PUSH1 0x20 ADD DUP3 DUP1 SLOAD PUSH2 0x2D6 SWAP1 PUSH2 0xA9B JUMP JUMPDEST DUP1 ISZERO PUSH2 0x321 JUMPI DUP1 PUSH1 0x1F LT PUSH2 0x2F8 JUMPI PUSH2 0x100 DUP1 DUP4 SLOAD DIV MUL DUP4 MSTORE SWAP2 PUSH1 0x20 ADD SWAP2 PUSH2 0x321 JUMP JUMPDEST DUP3 ADD SWAP2 SWAP1 PUSH0 MSTORE PUSH1 0x20 PUSH0 KECCAK256 SWAP1 JUMPDEST DUP2 SLOAD DUP2 MSTORE SWAP1 PUSH1 0x1 ADD SWAP1 PUSH1 0x20 ADD DUP1 DUP4 GT PUSH2 0x304 JUMPI DUP3 SWAP1 SUB PUSH1 0x1F AND DUP3 ADD SWAP2 JUMPDEST POP POP POP POP POP DUP2 JUMP JUMPDEST PUSH0 DUP1 PUSH1 0x8 SWAP1 POP DUP1 SWAP2 POP POP SWAP1 JUMP JUMPDEST PUSH1 0xA DUP2 DUP2 SLOAD DUP2 LT PUSH2 0x345 JUMPI PUSH0 DUP1 REVERT JUMPDEST SWAP1 PUSH0 MSTORE PUSH1 0x20 PUSH0 KECCAK256 ADD PUSH0 SWAP2 POP SWAP1 POP DUP1 SLOAD PUSH2 0x35D SWAP1 PUSH2 0xA9B JUMP JUMPDEST DUP1 PUSH1 0x1F ADD PUSH1 0x20 DUP1 SWAP2 DIV MUL PUSH1 0x20 ADD PUSH1 0x40 MLOAD SWAP1 DUP2 ADD PUSH1 0x40 MSTORE DUP1 SWAP3 SWAP2 SWAP1 DUP2 DUP2 MSTORE PUSH1 0x20 ADD DUP3 DUP1 SLOAD PUSH2 0x389 SWAP1 PUSH2 0xA9B JUMP JUMPDEST DUP1 ISZERO PUSH2 0x3D4 JUMPI DUP1 PUSH1 0x1F LT PUSH2 0x3AB JUMPI PUSH2 0x100 DUP1 DUP4 SLOAD DIV MUL DUP4 MSTORE SWAP2 PUSH1 0x20 ADD SWAP2 PUSH2 0x3D4 JUMP JUMPDEST DUP3 ADD SWAP2 SWAP1 PUSH0 MSTORE PUSH1 0x20 PUSH0 KECCAK256 SWAP1 JUMPDEST DUP2 SLOAD DUP2 MSTORE SWAP1 PUSH1 0x1 ADD SWAP1 PUSH1 0x20 ADD DUP1 DUP4 GT PUSH2 0x3B7 JUMPI DUP3 SWAP1 SUB PUSH1 0x1F AND DUP3 ADD SWAP2 JUMPDEST POP POP POP POP POP DUP2 JUMP JUMPDEST PUSH0 SLOAD DUP2 JUMP JUMPDEST PUSH1 0x9 DUP2 DUP2 SLOAD DUP2 LT PUSH2 0x3F0 JUMPI PUSH0 DUP1 REVERT JUMPDEST SWAP1 PUSH0 MSTORE PUSH1 0x20 PUSH0 KECCAK256 ADD PUSH0 SWAP2 POP SWAP1 POP DUP1 SLOAD PUSH2 0x408 SWAP1 PUSH2 0xA9B JUMP JUMPDEST DUP1 PUSH1 0x1F ADD PUSH1 0x20 DUP1 SWAP2 DIV MUL PUSH1 0x20 ADD PUSH1 0x40 MLOAD SWAP1 DUP2 ADD PUSH1 0x40 MSTORE DUP1 SWAP3 SWAP2 SWAP1 DUP2 DUP2 MSTORE PUSH1 0x20 ADD DUP3 DUP1 SLOAD PUSH2 0x434 SWAP1 PUSH2 0xA9B JUMP JUMPDEST DUP1 ISZERO PUSH2 0x47F JUMPI DUP1 PUSH1 0x1F LT PUSH2 0x456 JUMPI PUSH2 0x100 DUP1 DUP4 SLOAD DIV MUL DUP4 MSTORE SWAP2 PUSH1 0x20 ADD SWAP2 PUSH2 0x47F JUMP JUMPDEST DUP3 ADD SWAP2 SWAP1 PUSH0 MSTORE PUSH1 0x20 PUSH0 KECCAK256 SWAP1 JUMPDEST DUP2 SLOAD DUP2 MSTORE SWAP1 PUSH1 0x1 ADD SWAP1 PUSH1 0x20 ADD DUP1 DUP4 GT PUSH2 0x462 JUMPI DUP3 SWAP1 SUB PUSH1 0x1F AND DUP3 ADD SWAP2 JUMPDEST POP POP POP POP POP DUP2 JUMP JUMPDEST PUSH1 0x1 SLOAD DUP2 JUMP JUMPDEST PUSH1 0x9 DUP2 SWAP1 DUP1 PUSH1 0x1 DUP2 SLOAD ADD DUP1 DUP3 SSTORE DUP1 SWAP2 POP POP PUSH1 0x1 SWAP1 SUB SWAP1 PUSH0 MSTORE PUSH1 0x20 PUSH0 KECCAK256 ADD PUSH0 SWAP1 SWAP2 SWAP1 SWAP2 SWAP1 SWAP2 POP SWAP1 DUP2 PUSH2 0x4BE SWAP2 SWAP1 PUSH2 0xC68 JUMP JUMPDEST POP POP JUMP JUMPDEST PUSH0 PUSH1 0x8 DUP1 SLOAD SWAP1 POP SWAP1 POP SWAP1 JUMP JUMPDEST PUSH1 0x8 DUP2 DUP2 SLOAD DUP2 LT PUSH2 0x4DD JUMPI PUSH0 DUP1 REVERT JUMPDEST SWAP1 PUSH0 MSTORE PUSH1 0x20 PUSH0 KECCAK256 ADD PUSH0 SWAP2 POP SWAP1 POP SLOAD DUP2 JUMP JUMPDEST PUSH1 0x4 DUP1 PUSH0 ADD SLOAD SWAP1 DUP1 PUSH1 0x1 ADD DUP1 SLOAD PUSH2 0x504 SWAP1 PUSH2 0xA9B JUMP JUMPDEST DUP1 PUSH1 0x1F ADD PUSH1 0x20 DUP1 SWAP2 DIV MUL PUSH1 0x20 ADD PUSH1 0x40 MLOAD SWAP1 DUP2 ADD PUSH1 0x40 MSTORE DUP1 SWAP3 SWAP2 SWAP1 DUP2 DUP2 MSTORE PUSH1 0x20 ADD DUP3 DUP1 SLOAD PUSH2 0x530 SWAP1 PUSH2 0xA9B JUMP JUMPDEST DUP1 ISZERO PUSH2 0x57B JUMPI DUP1 PUSH1 0x1F LT PUSH2 0x552 JUMPI PUSH2 0x100 DUP1 DUP4 SLOAD DIV MUL DUP4 MSTORE SWAP2 PUSH1 0x20 ADD SWAP2 PUSH2 0x57B JUMP JUMPDEST DUP3 ADD SWAP2 SWAP1 PUSH0 MSTORE PUSH1 0x20 PUSH0 KECCAK256 SWAP1 JUMPDEST DUP2 SLOAD DUP2 MSTORE SWAP1 PUSH1 0x1 ADD SWAP1 PUSH1 0x20 ADD DUP1 DUP4 GT PUSH2 0x55E JUMPI DUP3 SWAP1 SUB PUSH1 0x1F AND DUP3 ADD SWAP2 JUMPDEST POP POP POP POP POP SWAP1 DUP1 PUSH1 0x2 ADD PUSH0 SWAP1 SLOAD SWAP1 PUSH2 0x100 EXP SWAP1 DIV PUSH1 0xFF AND SWAP1 DUP1 PUSH1 0x3 ADD DUP1 SLOAD PUSH2 0x5A2 SWAP1 PUSH2 0xA9B JUMP JUMPDEST DUP1 PUSH1 0x1F ADD PUSH1 0x20 DUP1 SWAP2 DIV MUL PUSH1 0x20 ADD PUSH1 0x40 MLOAD SWAP1 DUP2 ADD PUSH1 0x40 MSTORE DUP1 SWAP3 SWAP2 SWAP1 DUP2 DUP2 MSTORE PUSH1 0x20 ADD DUP3 DUP1 SLOAD PUSH2 0x5CE SWAP1 PUSH2 0xA9B JUMP JUMPDEST DUP1 ISZERO PUSH2 0x619 JUMPI DUP1 PUSH1 0x1F LT PUSH2 0x5F0 JUMPI PUSH2 0x100 DUP1 DUP4 SLOAD DIV MUL DUP4 MSTORE SWAP2 PUSH1 0x20 ADD SWAP2 PUSH2 0x619 JUMP JUMPDEST DUP3 ADD SWAP2 SWAP1 PUSH0 MSTORE PUSH1 0x20 PUSH0 KECCAK256 SWAP1 JUMPDEST DUP2 SLOAD DUP2 MSTORE SWAP1 PUSH1 0x1 ADD SWAP1 PUSH1 0x20 ADD DUP1 DUP4 GT PUSH2 0x5FC JUMPI DUP3 SWAP1 SUB PUSH1 0x1F AND DUP3 ADD SWAP2 JUMPDEST POP POP POP POP POP SWAP1 POP DUP5 JUMP JUMPDEST PUSH1 0x2 DUP1 SLOAD PUSH2 0x630 SWAP1 PUSH2 0xA9B JUMP JUMPDEST DUP1 PUSH1 0x1F ADD PUSH1 0x20 DUP1 SWAP2 DIV MUL PUSH1 0x20 ADD PUSH1 0x40 MLOAD SWAP1 DUP2 ADD PUSH1 0x40 MSTORE DUP1 SWAP3 SWAP2 SWAP1 DUP2 DUP2 MSTORE PUSH1 0x20 ADD DUP3 DUP1 SLOAD PUSH2 0x65C SWAP1 PUSH2 0xA9B JUMP JUMPDEST DUP1 ISZERO PUSH2 0x6A7 JUMPI DUP1 PUSH1 0x1F LT PUSH2 0x67E JUMPI PUSH2 0x100 DUP1 DUP4 SLOAD DIV MUL DUP4 MSTORE SWAP2 PUSH1 0x20 ADD SWAP2 PUSH2 0x6A7 JUMP JUMPDEST DUP3 ADD SWAP2 SWAP1 PUSH0 MSTORE PUSH1 0x20 PUSH0 KECCAK256 SWAP1 JUMPDEST DUP2 SLOAD DUP2 MSTORE SWAP1 PUSH1 0x1 ADD SWAP1 PUSH1 0x20 ADD DUP1 DUP4 GT PUSH2 0x68A JUMPI DUP3 SWAP1 SUB PUSH1 0x1F AND DUP3 ADD SWAP2 JUMPDEST POP POP POP POP POP DUP2 JUMP JUMPDEST PUSH0 DUP2 SWAP1 POP SWAP2 SWAP1 POP JUMP JUMPDEST PUSH2 0x6C1 DUP2 PUSH2 0x6AF JUMP JUMPDEST DUP3 MSTORE POP POP JUMP JUMPDEST PUSH0 PUSH1 0x20 DUP3 ADD SWAP1 POP PUSH2 0x6DA PUSH0 DUP4 ADD DUP5 PUSH2 0x6B8 JUMP JUMPDEST SWAP3 SWAP2 POP POP JUMP JUMPDEST PUSH0 PUSH1 0x40 MLOAD SWAP1 POP SWAP1 JUMP JUMPDEST PUSH0 DUP1 REVERT JUMPDEST PUSH0 DUP1 REVERT JUMPDEST PUSH0 DUP2 SWAP1 POP SWAP2 SWAP1 POP JUMP JUMPDEST PUSH2 0x703 DUP2 PUSH2 0x6F1 JUMP JUMPDEST DUP2 EQ PUSH2 0x70D JUMPI PUSH0 DUP1 REVERT JUMPDEST POP JUMP JUMPDEST PUSH0 DUP2 CALLDATALOAD SWAP1 POP PUSH2 0x71E DUP2 PUSH2 0x6FA JUMP JUMPDEST SWAP3 SWAP2 POP POP JUMP JUMPDEST PUSH0 DUP1 PUSH1 0x40 DUP4 DUP6 SUB SLT ISZERO PUSH2 0x73A JUMPI PUSH2 0x739 PUSH2 0x6E9 JUMP JUMPDEST JUMPDEST PUSH0 PUSH2 0x747 DUP6 DUP3 DUP7 ADD PUSH2 0x710 JUMP JUMPDEST SWAP3 POP POP PUSH1 0x20 PUSH2 0x758 DUP6 DUP3 DUP7 ADD PUSH2 0x710 JUMP JUMPDEST SWAP2 POP POP SWAP3 POP SWAP3 SWAP1 POP JUMP JUMPDEST PUSH0 DUP2 MLOAD SWAP1 POP SWAP2 SWAP1 POP JUMP JUMPDEST PUSH0 DUP3 DUP3 MSTORE PUSH1 0x20 DUP3 ADD SWAP1 POP SWAP3 SWAP2 POP POP JUMP JUMPDEST DUP3 DUP2 DUP4 MCOPY PUSH0 DUP4 DUP4 ADD MSTORE POP POP POP JUMP JUMPDEST PUSH0 PUSH1 0x1F NOT PUSH1 0x1F DUP4 ADD AND SWAP1 POP SWAP2 SWAP1 POP JUMP JUMPDEST PUSH0 PUSH2 0x7A4 DUP3 PUSH2 0x762 JUMP JUMPDEST PUSH2 0x7AE DUP2 DUP6 PUSH2 0x76C JUMP JUMPDEST SWAP4 POP PUSH2 0x7BE DUP2 DUP6 PUSH1 0x20 DUP7 ADD PUSH2 0x77C JUMP JUMPDEST PUSH2 0x7C7 DUP2 PUSH2 0x78A JUMP JUMPDEST DUP5 ADD SWAP2 POP POP SWAP3 SWAP2 POP POP JUMP JUMPDEST PUSH0 PUSH1 0x20 DUP3 ADD SWAP1 POP DUP2 DUP2 SUB PUSH0 DUP4 ADD MSTORE PUSH2 0x7EA DUP2 DUP5 PUSH2 0x79A JUMP JUMPDEST SWAP1 POP SWAP3 SWAP2 POP POP JUMP JUMPDEST PUSH0 PUSH1 0xFF DUP3 AND SWAP1 POP SWAP2 SWAP1 POP JUMP JUMPDEST PUSH2 0x807 DUP2 PUSH2 0x7F2 JUMP JUMPDEST DUP3 MSTORE POP POP JUMP JUMPDEST PUSH0 PUSH1 0x20 DUP3 ADD SWAP1 POP PUSH2 0x820 PUSH0 DUP4 ADD DUP5 PUSH2 0x7FE JUMP JUMPDEST SWAP3 SWAP2 POP POP JUMP JUMPDEST PUSH0 PUSH1 0x20 DUP3 DUP5 SUB SLT ISZERO PUSH2 0x83B JUMPI PUSH2 0x83A PUSH2 0x6E9 JUMP JUMPDEST JUMPDEST PUSH0 PUSH2 0x848 DUP5 DUP3 DUP6 ADD PUSH2 0x710 JUMP JUMPDEST SWAP2 POP POP SWAP3 SWAP2 POP POP JUMP JUMPDEST PUSH0 DUP2 SWAP1 POP SWAP2 SWAP1 POP JUMP JUMPDEST PUSH2 0x863 DUP2 PUSH2 0x851 JUMP JUMPDEST DUP3 MSTORE POP POP JUMP JUMPDEST PUSH0 PUSH1 0x20 DUP3 ADD SWAP1 POP PUSH2 0x87C PUSH0 DUP4 ADD DUP5 PUSH2 0x85A JUMP JUMPDEST SWAP3 SWAP2 POP POP JUMP JUMPDEST PUSH0 DUP1 REVERT JUMPDEST PUSH0 DUP1 REVERT JUMPDEST PUSH32 0x4E487B7100000000000000000000000000000000000000000000000000000000 PUSH0 MSTORE PUSH1 0x41 PUSH1 0x4 MSTORE PUSH1 0x24 PUSH0 REVERT JUMPDEST PUSH2 0x8C0 DUP3 PUSH2 0x78A JUMP JUMPDEST DUP2 ADD DUP2 DUP2 LT PUSH8 0xFFFFFFFFFFFFFFFF DUP3 GT OR ISZERO PUSH2 0x8DF JUMPI PUSH2 0x8DE PUSH2 0x88A JUMP JUMPDEST JUMPDEST DUP1 PUSH1 0x40 MSTORE POP POP POP JUMP JUMPDEST PUSH0 PUSH2 0x8F1 PUSH2 0x6E0 JUMP JUMPDEST SWAP1 POP PUSH2 0x8FD DUP3 DUP3 PUSH2 0x8B7 JUMP JUMPDEST SWAP2 SWAP1 POP JUMP JUMPDEST PUSH0 PUSH8 0xFFFFFFFFFFFFFFFF DUP3 GT ISZERO PUSH2 0x91C JUMPI PUSH2 0x91B PUSH2 0x88A JUMP JUMPDEST JUMPDEST PUSH2 0x925 DUP3 PUSH2 0x78A JUMP JUMPDEST SWAP1 POP PUSH1 0x20 DUP2 ADD SWAP1 POP SWAP2 SWAP1 POP JUMP JUMPDEST DUP3 DUP2 DUP4 CALLDATACOPY PUSH0 DUP4 DUP4 ADD MSTORE POP POP POP JUMP JUMPDEST PUSH0 PUSH2 0x952 PUSH2 0x94D DUP5 PUSH2 0x902 JUMP JUMPDEST PUSH2 0x8E8 JUMP JUMPDEST SWAP1 POP DUP3 DUP2 MSTORE PUSH1 0x20 DUP2 ADD DUP5 DUP5 DUP5 ADD GT ISZERO PUSH2 0x96E JUMPI PUSH2 0x96D PUSH2 0x886 JUMP JUMPDEST JUMPDEST PUSH2 0x979 DUP5 DUP3 DUP6 PUSH2 0x932 JUMP JUMPDEST POP SWAP4 SWAP3 POP POP POP JUMP JUMPDEST PUSH0 DUP3 PUSH1 0x1F DUP4 ADD SLT PUSH2 0x995 JUMPI PUSH2 0x994 PUSH2 0x882 JUMP JUMPDEST JUMPDEST DUP2 CALLDATALOAD PUSH2 0x9A5 DUP5 DUP3 PUSH1 0x20 DUP7 ADD PUSH2 0x940 JUMP JUMPDEST SWAP2 POP POP SWAP3 SWAP2 POP POP JUMP JUMPDEST PUSH0 PUSH1 0x20 DUP3 DUP5 SUB SLT ISZERO PUSH2 0x9C3 JUMPI PUSH2 0x9C2 PUSH2 0x6E9 JUMP JUMPDEST JUMPDEST PUSH0 DUP3 ADD CALLDATALOAD PUSH8 0xFFFFFFFFFFFFFFFF DUP2 GT ISZERO PUSH2 0x9E0 JUMPI PUSH2 0x9DF PUSH2 0x6ED JUMP JUMPDEST JUMPDEST PUSH2 0x9EC DUP5 DUP3 DUP6 ADD PUSH2 0x981 JUMP JUMPDEST SWAP2 POP POP SWAP3 SWAP2 POP POP JUMP JUMPDEST PUSH2 0x9FE DUP2 PUSH2 0x6F1 JUMP JUMPDEST DUP3 MSTORE POP POP JUMP JUMPDEST PUSH0 PUSH1 0x20 DUP3 ADD SWAP1 POP PUSH2 0xA17 PUSH0 DUP4 ADD DUP5 PUSH2 0x9F5 JUMP JUMPDEST SWAP3 SWAP2 POP POP JUMP JUMPDEST PUSH0 PUSH1 0x80 DUP3 ADD SWAP1 POP PUSH2 0xA30 PUSH0 DUP4 ADD DUP8 PUSH2 0x9F5 JUMP JUMPDEST DUP2 DUP2 SUB PUSH1 0x20 DUP4 ADD MSTORE PUSH2 0xA42 DUP2 DUP7 PUSH2 0x79A JUMP JUMPDEST SWAP1 POP PUSH2 0xA51 PUSH1 0x40 DUP4 ADD DUP6 PUSH2 0x7FE JUMP JUMPDEST DUP2 DUP2 SUB PUSH1 0x60 DUP4 ADD MSTORE PUSH2 0xA63 DUP2 DUP5 PUSH2 0x79A JUMP JUMPDEST SWAP1 POP SWAP6 SWAP5 POP POP POP POP POP JUMP JUMPDEST PUSH32 0x4E487B7100000000000000000000000000000000000000000000000000000000 PUSH0 MSTORE PUSH1 0x22 PUSH1 0x4 MSTORE PUSH1 0x24 PUSH0 REVERT JUMPDEST PUSH0 PUSH1 0x2 DUP3 DIV SWAP1 POP PUSH1 0x1 DUP3 AND DUP1 PUSH2 0xAB2 JUMPI PUSH1 0x7F DUP3 AND SWAP2 POP JUMPDEST PUSH1 0x20 DUP3 LT DUP2 SUB PUSH2 0xAC5 JUMPI PUSH2 0xAC4 PUSH2 0xA6E JUMP JUMPDEST JUMPDEST POP SWAP2 SWAP1 POP JUMP JUMPDEST PUSH0 DUP2 SWAP1 POP DUP2 PUSH0 MSTORE PUSH1 0x20 PUSH0 KECCAK256 SWAP1 POP SWAP2 SWAP1 POP JUMP JUMPDEST PUSH0 PUSH1 0x20 PUSH1 0x1F DUP4 ADD DIV SWAP1 POP SWAP2 SWAP1 POP JUMP JUMPDEST PUSH0 DUP3 DUP3 SHL SWAP1 POP SWAP3 SWAP2 POP POP JUMP JUMPDEST PUSH0 PUSH1 0x8 DUP4 MUL PUSH2 0xB27 PUSH32 0xFFFFFFFFFFFFFFFFFFFFFFFFFFFFFFFFFFFFFFFFFFFFFFFFFFFFFFFFFFFFFFFF DUP3 PUSH2 0xAEC JUMP JUMPDEST PUSH2 0xB31 DUP7 DUP4 PUSH2 0xAEC JUMP JUMPDEST SWAP6 POP DUP1 NOT DUP5 AND SWAP4 POP DUP1 DUP7 AND DUP5 OR SWAP3 POP POP POP SWAP4 SWAP3 POP POP POP JUMP JUMPDEST PUSH0 DUP2 SWAP1 POP SWAP2 SWAP1 POP JUMP JUMPDEST PUSH0 PUSH2 0xB6C PUSH2 0xB67 PUSH2 0xB62 DUP5 PUSH2 0x6F1 JUMP JUMPDEST PUSH2 0xB49 JUMP JUMPDEST PUSH2 0x6F1 JUMP JUMPDEST SWAP1 POP SWAP2 SWAP1 POP JUMP JUMPDEST PUSH0 DUP2 SWAP1 POP SWAP2 SWAP1 POP JUMP JUMPDEST PUSH2 0xB85 DUP4 PUSH2 0xB52 JUMP JUMPDEST PUSH2 0xB99 PUSH2 0xB91 DUP3 PUSH2 0xB73 JUMP JUMPDEST DUP5 DUP5 SLOAD PUSH2 0xAF8 JUMP JUMPDEST DUP3 SSTORE POP POP POP POP JUMP JUMPDEST PUSH0 SWAP1 JUMP JUMPDEST PUSH2 0xBAD PUSH2 0xBA1 JUMP JUMPDEST PUSH2 0xBB8 DUP2 DUP5 DUP5 PUSH2 0xB7C JUMP JUMPDEST POP POP POP JUMP JUMPDEST JUMPDEST DUP2 DUP2 LT ISZERO PUSH2 0xBDB JUMPI PUSH2 0xBD0 PUSH0 DUP3 PUSH2 0xBA5 JUMP JUMPDEST PUSH1 0x1 DUP2 ADD SWAP1 POP PUSH2 0xBBE JUMP JUMPDEST POP POP JUMP JUMPDEST PUSH1 0x1F DUP3 GT ISZERO PUSH2 0xC20 JUMPI PUSH2 0xBF1 DUP2 PUSH2 0xACB JUMP JUMPDEST PUSH2 0xBFA DUP5 PUSH2 0xADD JUMP JUMPDEST DUP2 ADD PUSH1 0x20 DUP6 LT ISZERO PUSH2 0xC09 JUMPI DUP2 SWAP1 POP JUMPDEST PUSH2 0xC1D PUSH2 0xC15 DUP6 PUSH2 0xADD JUMP JUMPDEST DUP4 ADD DUP3 PUSH2 0xBBD JUMP JUMPDEST POP POP JUMPDEST POP POP POP JUMP JUMPDEST PUSH0 DUP3 DUP3 SHR SWAP1 POP SWAP3 SWAP2 POP POP JUMP JUMPDEST PUSH0 PUSH2 0xC40 PUSH0 NOT DUP5 PUSH1 0x8 MUL PUSH2 0xC25 JUMP JUMPDEST NOT DUP1 DUP4 AND SWAP2 POP POP SWAP3 SWAP2 POP POP JUMP JUMPDEST PUSH0 PUSH2 0xC58 DUP4 DUP4 PUSH2 0xC31 JUMP JUMPDEST SWAP2 POP DUP3 PUSH1 0x2 MUL DUP3 OR SWAP1 POP SWAP3 SWAP2 POP POP JUMP JUMPDEST PUSH2 0xC71 DUP3 PUSH2 0x762 JUMP JUMPDEST PUSH8 0xFFFFFFFFFFFFFFFF DUP2 GT ISZERO PUSH2 0xC8A JUMPI PUSH2 0xC89 PUSH2 0x88A JUMP JUMPDEST JUMPDEST PUSH2 0xC94 DUP3 SLOAD PUSH2 0xA9B JUMP JUMPDEST PUSH2 0xC9F DUP3 DUP3 DUP6 PUSH2 0xBDF JUMP JUMPDEST PUSH0 PUSH1 0x20 SWAP1 POP PUSH1 0x1F DUP4 GT PUSH1 0x1 DUP2 EQ PUSH2 0xCD0 JUMPI PUSH0 DUP5 ISZERO PUSH2 0xCBE JUMPI DUP3 DUP8 ADD MLOAD SWAP1 POP JUMPDEST PUSH2 0xCC8 DUP6 DUP3 PUSH2 0xC4D JUMP JUMPDEST DUP7 SSTORE POP PUSH2 0xD2F JUMP JUMPDEST PUSH1 0x1F NOT DUP5 AND PUSH2 0xCDE DUP7 PUSH2 0xACB JUMP JUMPDEST PUSH0 JUMPDEST DUP3 DUP2 LT ISZERO PUSH2 0xD05 JUMPI DUP5 DUP10 ADD MLOAD DUP3 SSTORE PUSH1 0x1 DUP3 ADD SWAP2 POP PUSH1 0x20 DUP6 ADD SWAP5 POP PUSH1 0x20 DUP2 ADD SWAP1 POP PUSH2 0xCE0 JUMP JUMPDEST DUP7 DUP4 LT ISZERO PUSH2 0xD22 JUMPI DUP5 DUP10 ADD MLOAD PUSH2 0xD1E PUSH1 0x1F DUP10 AND DUP3 PUSH2 0xC31 JUMP JUMPDEST DUP4 SSTORE POP JUMPDEST PUSH1 0x1 PUSH1 0x2 DUP9 MUL ADD DUP9 SSTORE POP POP POP JUMPDEST POP POP POP POP POP POP JUMP INVALID LOG2 PUSH5 0x6970667358 0x22 SLT KECCAK256 CODECOPY JUMP 0xFB EXTCODECOPY XOR 0xEE 0xB6 CREATE2 PUSH28 0x23282DF51231320BCB89AB25DD755E61FA3FFFE317F55164736F6C63 NUMBER STOP ADDMOD BYTE STOP CALLER "
		},
		"gasEstimates": {
			"creation": {
				"codeDepositCost": "687400",
				"executionCost": "infinite",
				"totalCost": "infinite"
			},
			"external": {
				"addvalue(string)": "infinite",
				"getLenght()": "2484",
				"getValue()": "396",
				"my2darray(uint256,uint256)": "infinite",
				"myArray(uint256)": "infinite",
				"myByteImage()": "2426",
				"negativeNumber()": "2425",
				"newArr(uint256)": "infinite",
				"nftImage()": "infinite",
				"number()": "2513",
				"stringArray(uint256)": "infinite",
				"userDetail()": "infinite"
			}
		},
		"methodIdentifiers": {
			"addvalue(string)": "b2e95e0f",
			"getLenght()": "bed2a42e",
			"getValue()": "20965255",
			"my2darray(uint256,uint256)": "200e4499",
			"myArray(uint256)": "cc3e57d9",
			"myByteImage()": "1c2e2d2e",
			"negativeNumber()": "aca20a5b",
			"newArr(uint256)": "91c46ba7",
			"nftImage()": "e38bc077",
			"number()": "8381f58a",
			"stringArray(uint256)": "6422c4c8",
			"userDetail()": "e153270e"
		}
	},
	"abi": [
		{
			"inputs": [
				{
					"internalType": "string",
					"name": "_value",
					"type": "string"
				}
			],
			"name": "addvalue",
			"outputs": [],
			"stateMutability": "nonpayable",
			"type": "function"
		},
		{
			"inputs": [],
			"name": "getLenght",
			"outputs": [
				{
					"internalType": "uint256",
					"name": "",
					"type": "uint256"
				}
			],
			"stateMutability": "view",
			"type": "function"
		},
		{
			"inputs": [],
			"name": "getValue",
			"outputs": [
				{
					"internalType": "uint8",
					"name": "",
					"type": "uint8"
				}
			],
			"stateMutability": "pure",
			"type": "function"
		},
		{
			"inputs": [
				{
					"internalType": "uint256",
					"name": "",
					"type": "uint256"
				},
				{
					"internalType": "uint256",
					"name": "",
					"type": "uint256"
				}
			],
			"name": "my2darray",
			"outputs": [
				{
					"internalType": "string",
					"name": "",
					"type": "string"
				}
			],
			"stateMutability": "view",
			"type": "function"
		},
		{
			"inputs": [
				{
					"internalType": "uint256",
					"name": "",
					"type": "uint256"
				}
			],
			"name": "myArray",
			"outputs": [
				{
					"internalType": "uint256",
					"name": "",
					"type": "uint256"
				}
			],
			"stateMutability": "view",
			"type": "function"
		},
		{
			"inputs": [],
			"name": "myByteImage",
			"outputs": [
				{
					"internalType": "bytes32",
					"name": "",
					"type": "bytes32"
				}
			],
			"stateMutability": "view",
			"type": "function"
		},
		{
			"inputs": [],
			"name": "negativeNumber",
			"outputs": [
				{
					"internalType": "int256",
					"name": "",
					"type": "int256"
				}
			],
			"stateMutability": "view",
			"type": "function"
		},
		{
			"inputs": [
				{
					"internalType": "uint256",
					"name": "",
					"type": "uint256"
				}
			],
			"name": "newArr",
			"outputs": [
				{
					"internalType": "string",
					"name": "",
					"type": "string"
				}
			],
			"stateMutability": "view",
			"type": "function"
		},
		{
			"inputs": [],
			"name": "nftImage",
			"outputs": [
				{
					"internalType": "string",
					"name": "",
					"type": "string"
				}
			],
			"stateMutability": "view",
			"type": "function"
		},
		{
			"inputs": [],
			"name": "number",
			"outputs": [
				{
					"internalType": "int256",
					"name": "",
					"type": "int256"
				}
			],
			"stateMutability": "view",
			"type": "function"
		},
		{
			"inputs": [
				{
					"internalType": "uint256",
					"name": "",
					"type": "uint256"
				}
			],
			"name": "stringArray",
			"outputs": [
				{
					"internalType": "string",
					"name": "",
					"type": "string"
				}
			],
			"stateMutability": "view",
			"type": "function"
		},
		{
			"inputs": [],
			"name": "userDetail",
			"outputs": [
				{
					"internalType": "uint256",
					"name": "id",
					"type": "uint256"
				},
				{
					"internalType": "string",
					"name": "name",
					"type": "string"
				},
				{
					"internalType": "uint8",
					"name": "age",
					"type": "uint8"
				},
				{
					"internalType": "string",
					"name": "place",
					"type": "string"
				}
			],
			"stateMutability": "view",
			"type": "function"
		}
	]
}