{
	"data": {
		"bytecode": {
			"linkReferences": {},
			"object": "608060405260025f557fffffffffffffffffffffffffffffffffffffffffffffffffffffffffffffffff6001556040518060400160405280600f81526020017f696d67206c696e6b20746f206e667400000000000000000000000000000000008152506002908161007091906103ca565b507f696d61676520746f206e667420696e206279746500000000000000000000000060035560405180608001604052806212d66f81526020016040518060400160405280600481526020017f72616669000000000000000000000000000000000000000000000000000000008152508152602001601560ff1681526020016040518060400160405280600781526020017f6e6967657269610000000000000000000000000000000000000000000000000081525081525060045f820151815f0155602082015181600101908161014691906103ca565b506040820151816002015f6101000a81548160ff021916908360ff160217905550606082015181600301908161017c91906103ca565b50505034801561018a575f80fd5b50610499565b5f81519050919050565b7f4e487b71000000000000000000000000000000000000000000000000000000005f52604160045260245ffd5b7f4e487b71000000000000000000000000000000000000000000000000000000005f52602260045260245ffd5b5f600282049050600182168061020b57607f821691505b60208210810361021e5761021d6101c7565b5b50919050565b5f819050815f5260205f209050919050565b5f6020601f8301049050919050565b5f82821b905092915050565b5f600883026102807fffffffffffffffffffffffffffffffffffffffffffffffffffffffffffffffff82610245565b61028a8683610245565b95508019841693508086168417925050509392505050565b5f819050919050565b5f819050919050565b5f6102ce6102c96102c4846102a2565b6102ab565b6102a2565b9050919050565b5f819050919050565b6102e7836102b4565b6102fb6102f3826102d5565b848454610251565b825550505050565b5f90565b61030f610303565b61031a8184846102de565b505050565b5b8181101561033d576103325f82610307565b600181019050610320565b5050565b601f8211156103825761035381610224565b61035c84610236565b8101602085101561036b578190505b61037f61037785610236565b83018261031f565b50505b505050565b5f82821c905092915050565b5f6103a25f1984600802610387565b1980831691505092915050565b5f6103ba8383610393565b9150826002028217905092915050565b6103d382610190565b67ffffffffffffffff8111156103ec576103eb61019a565b5b6103f682546101f4565b610401828285610341565b5f60209050601f831160018114610432575f8415610420578287015190505b61042a85826103af565b865550610491565b601f19841661044086610224565b5f5b8281101561046757848901518255600182019150602085019450602081019050610442565b868310156104845784890151610480601f891682610393565b8355505b6001600288020188555050505b505050505050565b61051c806104a65f395ff3fe608060405234801561000f575f80fd5b5060043610610060575f3560e01c80631c2e2d2e1461006457806320965255146100825780638381f58a146100a0578063aca20a5b146100be578063e153270e146100dc578063e38bc077146100fd575b5f80fd5b61006c61011b565b6040516100799190610312565b60405180910390f35b61008a610121565b6040516100979190610346565b60405180910390f35b6100a861012e565b6040516100b59190610377565b60405180910390f35b6100c6610133565b6040516100d39190610377565b60405180910390f35b6100e4610139565b6040516100f49493929190610418565b60405180910390f35b61010561026e565b6040516101129190610469565b60405180910390f35b60035481565b5f80600890508091505090565b5f5481565b60015481565b6004805f01549080600101805461014f906104b6565b80601f016020809104026020016040519081016040528092919081815260200182805461017b906104b6565b80156101c65780601f1061019d576101008083540402835291602001916101c6565b820191905f5260205f20905b8154815290600101906020018083116101a957829003601f168201915b505050505090806002015f9054906101000a900460ff16908060030180546101ed906104b6565b80601f0160208091040260200160405190810160405280929190818152602001828054610219906104b6565b80156102645780601f1061023b57610100808354040283529160200191610264565b820191905f5260205f20905b81548152906001019060200180831161024757829003601f168201915b5050505050905084565b6002805461027b906104b6565b80601f01602080910402602001604051908101604052809291908181526020018280546102a7906104b6565b80156102f25780601f106102c9576101008083540402835291602001916102f2565b820191905f5260205f20905b8154815290600101906020018083116102d557829003601f168201915b505050505081565b5f819050919050565b61030c816102fa565b82525050565b5f6020820190506103255f830184610303565b92915050565b5f60ff82169050919050565b6103408161032b565b82525050565b5f6020820190506103595f830184610337565b92915050565b5f819050919050565b6103718161035f565b82525050565b5f60208201905061038a5f830184610368565b92915050565b5f819050919050565b6103a281610390565b82525050565b5f81519050919050565b5f82825260208201905092915050565b8281835e5f83830152505050565b5f601f19601f8301169050919050565b5f6103ea826103a8565b6103f481856103b2565b93506104048185602086016103c2565b61040d816103d0565b840191505092915050565b5f60808201905061042b5f830187610399565b818103602083015261043d81866103e0565b905061044c6040830185610337565b818103606083015261045e81846103e0565b905095945050505050565b5f6020820190508181035f83015261048181846103e0565b905092915050565b7f4e487b71000000000000000000000000000000000000000000000000000000005f52602260045260245ffd5b5f60028204905060018216806104cd57607f821691505b6020821081036104e0576104df610489565b5b5091905056fea2646970667358221220f920491bcd3273a0770558639f1debef215f3e80aad3e5c43fd01b43672d058c64736f6c634300081a0033",
			"opcodes": "PUSH1 0x80 PUSH1 0x40 MSTORE PUSH1 0x2 PUSH0 SSTORE PUSH32 0xFFFFFFFFFFFFFFFFFFFFFFFFFFFFFFFFFFFFFFFFFFFFFFFFFFFFFFFFFFFFFFFF PUSH1 0x1 SSTORE PUSH1 0x40 MLOAD DUP1 PUSH1 0x40 ADD PUSH1 0x40 MSTORE DUP1 PUSH1 0xF DUP2 MSTORE PUSH1 0x20 ADD PUSH32 0x696D67206C696E6B20746F206E66740000000000000000000000000000000000 DUP2 MSTORE POP PUSH1 0x2 SWAP1 DUP2 PUSH2 0x70 SWAP2 SWAP1 PUSH2 0x3CA JUMP JUMPDEST POP PUSH32 0x696D61676520746F206E667420696E2062797465000000000000000000000000 PUSH1 0x3 SSTORE PUSH1 0x40 MLOAD DUP1 PUSH1 0x80 ADD PUSH1 0x40 MSTORE DUP1 PUSH3 0x12D66F DUP2 MSTORE PUSH1 0x20 ADD PUSH1 0x40 MLOAD DUP1 PUSH1 0x40 ADD PUSH1 0x40 MSTORE DUP1 PUSH1 0x4 DUP2 MSTORE PUSH1 0x20 ADD PUSH32 0x7261666900000000000000000000000000000000000000000000000000000000 DUP2 MSTORE POP DUP2 MSTORE PUSH1 0x20 ADD PUSH1 0x15 PUSH1 0xFF AND DUP2 MSTORE PUSH1 0x20 ADD PUSH1 0x40 MLOAD DUP1 PUSH1 0x40 ADD PUSH1 0x40 MSTORE DUP1 PUSH1 0x7 DUP2 MSTORE PUSH1 0x20 ADD PUSH32 0x6E69676572696100000000000000000000000000000000000000000000000000 DUP2 MSTORE POP DUP2 MSTORE POP PUSH1 0x4 PUSH0 DUP3 ADD MLOAD DUP2 PUSH0 ADD SSTORE PUSH1 0x20 DUP3 ADD MLOAD DUP2 PUSH1 0x1 ADD SWAP1 DUP2 PUSH2 0x146 SWAP2 SWAP1 PUSH2 0x3CA JUMP JUMPDEST POP PUSH1 0x40 DUP3 ADD MLOAD DUP2 PUSH1 0x2 ADD PUSH0 PUSH2 0x100 EXP DUP2 SLOAD DUP2 PUSH1 0xFF MUL NOT AND SWAP1 DUP4 PUSH1 0xFF AND MUL OR SWAP1 SSTORE POP PUSH1 0x60 DUP3 ADD MLOAD DUP2 PUSH1 0x3 ADD SWAP1 DUP2 PUSH2 0x17C SWAP2 SWAP1 PUSH2 0x3CA JUMP JUMPDEST POP POP POP CALLVALUE DUP1 ISZERO PUSH2 0x18A JUMPI PUSH0 DUP1 REVERT JUMPDEST POP PUSH2 0x499 JUMP JUMPDEST PUSH0 DUP2 MLOAD SWAP1 POP SWAP2 SWAP1 POP JUMP JUMPDEST PUSH32 0x4E487B7100000000000000000000000000000000000000000000000000000000 PUSH0 MSTORE PUSH1 0x41 PUSH1 0x4 MSTORE PUSH1 0x24 PUSH0 REVERT JUMPDEST PUSH32 0x4E487B7100000000000000000000000000000000000000000000000000000000 PUSH0 MSTORE PUSH1 0x22 PUSH1 0x4 MSTORE PUSH1 0x24 PUSH0 REVERT JUMPDEST PUSH0 PUSH1 0x2 DUP3 DIV SWAP1 POP PUSH1 0x1 DUP3 AND DUP1 PUSH2 0x20B JUMPI PUSH1 0x7F DUP3 AND SWAP2 POP JUMPDEST PUSH1 0x20 DUP3 LT DUP2 SUB PUSH2 0x21E JUMPI PUSH2 0x21D PUSH2 0x1C7 JUMP JUMPDEST JUMPDEST POP SWAP2 SWAP1 POP JUMP JUMPDEST PUSH0 DUP2 SWAP1 POP DUP2 PUSH0 MSTORE PUSH1 0x20 PUSH0 KECCAK256 SWAP1 POP SWAP2 SWAP1 POP JUMP JUMPDEST PUSH0 PUSH1 0x20 PUSH1 0x1F DUP4 ADD DIV SWAP1 POP SWAP2 SWAP1 POP JUMP JUMPDEST PUSH0 DUP3 DUP3 SHL SWAP1 POP SWAP3 SWAP2 POP POP JUMP JUMPDEST PUSH0 PUSH1 0x8 DUP4 MUL PUSH2 0x280 PUSH32 0xFFFFFFFFFFFFFFFFFFFFFFFFFFFFFFFFFFFFFFFFFFFFFFFFFFFFFFFFFFFFFFFF DUP3 PUSH2 0x245 JUMP JUMPDEST PUSH2 0x28A DUP7 DUP4 PUSH2 0x245 JUMP JUMPDEST SWAP6 POP DUP1 NOT DUP5 AND SWAP4 POP DUP1 DUP7 AND DUP5 OR SWAP3 POP POP POP SWAP4 SWAP3 POP POP POP JUMP JUMPDEST PUSH0 DUP2 SWAP1 POP SWAP2 SWAP1 POP JUMP JUMPDEST PUSH0 DUP2 SWAP1 POP SWAP2 SWAP1 POP JUMP JUMPDEST PUSH0 PUSH2 0x2CE PUSH2 0x2C9 PUSH2 0x2C4 DUP5 PUSH2 0x2A2 JUMP JUMPDEST PUSH2 0x2AB JUMP JUMPDEST PUSH2 0x2A2 JUMP JUMPDEST SWAP1 POP SWAP2 SWAP1 POP JUMP JUMPDEST PUSH0 DUP2 SWAP1 POP SWAP2 SWAP1 POP JUMP JUMPDEST PUSH2 0x2E7 DUP4 PUSH2 0x2B4 JUMP JUMPDEST PUSH2 0x2FB PUSH2 0x2F3 DUP3 PUSH2 0x2D5 JUMP JUMPDEST DUP5 DUP5 SLOAD PUSH2 0x251 JUMP JUMPDEST DUP3 SSTORE POP POP POP POP JUMP JUMPDEST PUSH0 SWAP1 JUMP JUMPDEST PUSH2 0x30F PUSH2 0x303 JUMP JUMPDEST PUSH2 0x31A DUP2 DUP5 DUP5 PUSH2 0x2DE JUMP JUMPDEST POP POP POP JUMP JUMPDEST JUMPDEST DUP2 DUP2 LT ISZERO PUSH2 0x33D JUMPI PUSH2 0x332 PUSH0 DUP3 PUSH2 0x307 JUMP JUMPDEST PUSH1 0x1 DUP2 ADD SWAP1 POP PUSH2 0x320 JUMP JUMPDEST POP POP JUMP JUMPDEST PUSH1 0x1F DUP3 GT ISZERO PUSH2 0x382 JUMPI PUSH2 0x353 DUP2 PUSH2 0x224 JUMP JUMPDEST PUSH2 0x35C DUP5 PUSH2 0x236 JUMP JUMPDEST DUP2 ADD PUSH1 0x20 DUP6 LT ISZERO PUSH2 0x36B JUMPI DUP2 SWAP1 POP JUMPDEST PUSH2 0x37F PUSH2 0x377 DUP6 PUSH2 0x236 JUMP JUMPDEST DUP4 ADD DUP3 PUSH2 0x31F JUMP JUMPDEST POP POP JUMPDEST POP POP POP JUMP JUMPDEST PUSH0 DUP3 DUP3 SHR SWAP1 POP SWAP3 SWAP2 POP POP JUMP JUMPDEST PUSH0 PUSH2 0x3A2 PUSH0 NOT DUP5 PUSH1 0x8 MUL PUSH2 0x387 JUMP JUMPDEST NOT DUP1 DUP4 AND SWAP2 POP POP SWAP3 SWAP2 POP POP JUMP JUMPDEST PUSH0 PUSH2 0x3BA DUP4 DUP4 PUSH2 0x393 JUMP JUMPDEST SWAP2 POP DUP3 PUSH1 0x2 MUL DUP3 OR SWAP1 POP SWAP3 SWAP2 POP POP JUMP JUMPDEST PUSH2 0x3D3 DUP3 PUSH2 0x190 JUMP JUMPDEST PUSH8 0xFFFFFFFFFFFFFFFF DUP2 GT ISZERO PUSH2 0x3EC JUMPI PUSH2 0x3EB PUSH2 0x19A JUMP JUMPDEST JUMPDEST PUSH2 0x3F6 DUP3 SLOAD PUSH2 0x1F4 JUMP JUMPDEST PUSH2 0x401 DUP3 DUP3 DUP6 PUSH2 0x341 JUMP JUMPDEST PUSH0 PUSH1 0x20 SWAP1 POP PUSH1 0x1F DUP4 GT PUSH1 0x1 DUP2 EQ PUSH2 0x432 JUMPI PUSH0 DUP5 ISZERO PUSH2 0x420 JUMPI DUP3 DUP8 ADD MLOAD SWAP1 POP JUMPDEST PUSH2 0x42A DUP6 DUP3 PUSH2 0x3AF JUMP JUMPDEST DUP7 SSTORE POP PUSH2 0x491 JUMP JUMPDEST PUSH1 0x1F NOT DUP5 AND PUSH2 0x440 DUP7 PUSH2 0x224 JUMP JUMPDEST PUSH0 JUMPDEST DUP3 DUP2 LT ISZERO PUSH2 0x467 JUMPI DUP5 DUP10 ADD MLOAD DUP3 SSTORE PUSH1 0x1 DUP3 ADD SWAP2 POP PUSH1 0x20 DUP6 ADD SWAP5 POP PUSH1 0x20 DUP2 ADD SWAP1 POP PUSH2 0x442 JUMP JUMPDEST DUP7 DUP4 LT ISZERO PUSH2 0x484 JUMPI DUP5 DUP10 ADD MLOAD PUSH2 0x480 PUSH1 0x1F DUP10 AND DUP3 PUSH2 0x393 JUMP JUMPDEST DUP4 SSTORE POP JUMPDEST PUSH1 0x1 PUSH1 0x2 DUP9 MUL ADD DUP9 SSTORE POP POP POP JUMPDEST POP POP POP POP POP POP JUMP JUMPDEST PUSH2 0x51C DUP1 PUSH2 0x4A6 PUSH0 CODECOPY PUSH0 RETURN INVALID PUSH1 0x80 PUSH1 0x40 MSTORE CALLVALUE DUP1 ISZERO PUSH2 0xF JUMPI PUSH0 DUP1 REVERT JUMPDEST POP PUSH1 0x4 CALLDATASIZE LT PUSH2 0x60 JUMPI PUSH0 CALLDATALOAD PUSH1 0xE0 SHR DUP1 PUSH4 0x1C2E2D2E EQ PUSH2 0x64 JUMPI DUP1 PUSH4 0x20965255 EQ PUSH2 0x82 JUMPI DUP1 PUSH4 0x8381F58A EQ PUSH2 0xA0 JUMPI DUP1 PUSH4 0xACA20A5B EQ PUSH2 0xBE JUMPI DUP1 PUSH4 0xE153270E EQ PUSH2 0xDC JUMPI DUP1 PUSH4 0xE38BC077 EQ PUSH2 0xFD JUMPI JUMPDEST PUSH0 DUP1 REVERT JUMPDEST PUSH2 0x6C PUSH2 0x11B JUMP JUMPDEST PUSH1 0x40 MLOAD PUSH2 0x79 SWAP2 SWAP1 PUSH2 0x312 JUMP JUMPDEST PUSH1 0x40 MLOAD DUP1 SWAP2 SUB SWAP1 RETURN JUMPDEST PUSH2 0x8A PUSH2 0x121 JUMP JUMPDEST PUSH1 0x40 MLOAD PUSH2 0x97 SWAP2 SWAP1 PUSH2 0x346 JUMP JUMPDEST PUSH1 0x40 MLOAD DUP1 SWAP2 SUB SWAP1 RETURN JUMPDEST PUSH2 0xA8 PUSH2 0x12E JUMP JUMPDEST PUSH1 0x40 MLOAD PUSH2 0xB5 SWAP2 SWAP1 PUSH2 0x377 JUMP JUMPDEST PUSH1 0x40 MLOAD DUP1 SWAP2 SUB SWAP1 RETURN JUMPDEST PUSH2 0xC6 PUSH2 0x133 JUMP JUMPDEST PUSH1 0x40 MLOAD PUSH2 0xD3 SWAP2 SWAP1 PUSH2 0x377 JUMP JUMPDEST PUSH1 0x40 MLOAD DUP1 SWAP2 SUB SWAP1 RETURN JUMPDEST PUSH2 0xE4 PUSH2 0x139 JUMP JUMPDEST PUSH1 0x40 MLOAD PUSH2 0xF4 SWAP5 SWAP4 SWAP3 SWAP2 SWAP1 PUSH2 0x418 JUMP JUMPDEST PUSH1 0x40 MLOAD DUP1 SWAP2 SUB SWAP1 RETURN JUMPDEST PUSH2 0x105 PUSH2 0x26E JUMP JUMPDEST PUSH1 0x40 MLOAD PUSH2 0x112 SWAP2 SWAP1 PUSH2 0x469 JUMP JUMPDEST PUSH1 0x40 MLOAD DUP1 SWAP2 SUB SWAP1 RETURN JUMPDEST PUSH1 0x3 SLOAD DUP2 JUMP JUMPDEST PUSH0 DUP1 PUSH1 0x8 SWAP1 POP DUP1 SWAP2 POP POP SWAP1 JUMP JUMPDEST PUSH0 SLOAD DUP2 JUMP JUMPDEST PUSH1 0x1 SLOAD DUP2 JUMP JUMPDEST PUSH1 0x4 DUP1 PUSH0 ADD SLOAD SWAP1 DUP1 PUSH1 0x1 ADD DUP1 SLOAD PUSH2 0x14F SWAP1 PUSH2 0x4B6 JUMP JUMPDEST DUP1 PUSH1 0x1F ADD PUSH1 0x20 DUP1 SWAP2 DIV MUL PUSH1 0x20 ADD PUSH1 0x40 MLOAD SWAP1 DUP2 ADD PUSH1 0x40 MSTORE DUP1 SWAP3 SWAP2 SWAP1 DUP2 DUP2 MSTORE PUSH1 0x20 ADD DUP3 DUP1 SLOAD PUSH2 0x17B SWAP1 PUSH2 0x4B6 JUMP JUMPDEST DUP1 ISZERO PUSH2 0x1C6 JUMPI DUP1 PUSH1 0x1F LT PUSH2 0x19D JUMPI PUSH2 0x100 DUP1 DUP4 SLOAD DIV MUL DUP4 MSTORE SWAP2 PUSH1 0x20 ADD SWAP2 PUSH2 0x1C6 JUMP JUMPDEST DUP3 ADD SWAP2 SWAP1 PUSH0 MSTORE PUSH1 0x20 PUSH0 KECCAK256 SWAP1 JUMPDEST DUP2 SLOAD DUP2 MSTORE SWAP1 PUSH1 0x1 ADD SWAP1 PUSH1 0x20 ADD DUP1 DUP4 GT PUSH2 0x1A9 JUMPI DUP3 SWAP1 SUB PUSH1 0x1F AND DUP3 ADD SWAP2 JUMPDEST POP POP POP POP POP SWAP1 DUP1 PUSH1 0x2 ADD PUSH0 SWAP1 SLOAD SWAP1 PUSH2 0x100 EXP SWAP1 DIV PUSH1 0xFF AND SWAP1 DUP1 PUSH1 0x3 ADD DUP1 SLOAD PUSH2 0x1ED SWAP1 PUSH2 0x4B6 JUMP JUMPDEST DUP1 PUSH1 0x1F ADD PUSH1 0x20 DUP1 SWAP2 DIV MUL PUSH1 0x20 ADD PUSH1 0x40 MLOAD SWAP1 DUP2 ADD PUSH1 0x40 MSTORE DUP1 SWAP3 SWAP2 SWAP1 DUP2 DUP2 MSTORE PUSH1 0x20 ADD DUP3 DUP1 SLOAD PUSH2 0x219 SWAP1 PUSH2 0x4B6 JUMP JUMPDEST DUP1 ISZERO PUSH2 0x264 JUMPI DUP1 PUSH1 0x1F LT PUSH2 0x23B JUMPI PUSH2 0x100 DUP1 DUP4 SLOAD DIV MUL DUP4 MSTORE SWAP2 PUSH1 0x20 ADD SWAP2 PUSH2 0x264 JUMP JUMPDEST DUP3 ADD SWAP2 SWAP1 PUSH0 MSTORE PUSH1 0x20 PUSH0 KECCAK256 SWAP1 JUMPDEST DUP2 SLOAD DUP2 MSTORE SWAP1 PUSH1 0x1 ADD SWAP1 PUSH1 0x20 ADD DUP1 DUP4 GT PUSH2 0x247 JUMPI DUP3 SWAP1 SUB PUSH1 0x1F AND DUP3 ADD SWAP2 JUMPDEST POP POP POP POP POP SWAP1 POP DUP5 JUMP JUMPDEST PUSH1 0x2 DUP1 SLOAD PUSH2 0x27B SWAP1 PUSH2 0x4B6 JUMP JUMPDEST DUP1 PUSH1 0x1F ADD PUSH1 0x20 DUP1 SWAP2 DIV MUL PUSH1 0x20 ADD PUSH1 0x40 MLOAD SWAP1 DUP2 ADD PUSH1 0x40 MSTORE DUP1 SWAP3 SWAP2 SWAP1 DUP2 DUP2 MSTORE PUSH1 0x20 ADD DUP3 DUP1 SLOAD PUSH2 0x2A7 SWAP1 PUSH2 0x4B6 JUMP JUMPDEST DUP1 ISZERO PUSH2 0x2F2 JUMPI DUP1 PUSH1 0x1F LT PUSH2 0x2C9 JUMPI PUSH2 0x100 DUP1 DUP4 SLOAD DIV MUL DUP4 MSTORE SWAP2 PUSH1 0x20 ADD SWAP2 PUSH2 0x2F2 JUMP JUMPDEST DUP3 ADD SWAP2 SWAP1 PUSH0 MSTORE PUSH1 0x20 PUSH0 KECCAK256 SWAP1 JUMPDEST DUP2 SLOAD DUP2 MSTORE SWAP1 PUSH1 0x1 ADD SWAP1 PUSH1 0x20 ADD DUP1 DUP4 GT PUSH2 0x2D5 JUMPI DUP3 SWAP1 SUB PUSH1 0x1F AND DUP3 ADD SWAP2 JUMPDEST POP POP POP POP POP DUP2 JUMP JUMPDEST PUSH0 DUP2 SWAP1 POP SWAP2 SWAP1 POP JUMP JUMPDEST PUSH2 0x30C DUP2 PUSH2 0x2FA JUMP JUMPDEST DUP3 MSTORE POP POP JUMP JUMPDEST PUSH0 PUSH1 0x20 DUP3 ADD SWAP1 POP PUSH2 0x325 PUSH0 DUP4 ADD DUP5 PUSH2 0x303 JUMP JUMPDEST SWAP3 SWAP2 POP POP JUMP JUMPDEST PUSH0 PUSH1 0xFF DUP3 AND SWAP1 POP SWAP2 SWAP1 POP JUMP JUMPDEST PUSH2 0x340 DUP2 PUSH2 0x32B JUMP JUMPDEST DUP3 MSTORE POP POP JUMP JUMPDEST PUSH0 PUSH1 0x20 DUP3 ADD SWAP1 POP PUSH2 0x359 PUSH0 DUP4 ADD DUP5 PUSH2 0x337 JUMP JUMPDEST SWAP3 SWAP2 POP POP JUMP JUMPDEST PUSH0 DUP2 SWAP1 POP SWAP2 SWAP1 POP JUMP JUMPDEST PUSH2 0x371 DUP2 PUSH2 0x35F JUMP JUMPDEST DUP3 MSTORE POP POP JUMP JUMPDEST PUSH0 PUSH1 0x20 DUP3 ADD SWAP1 POP PUSH2 0x38A PUSH0 DUP4 ADD DUP5 PUSH2 0x368 JUMP JUMPDEST SWAP3 SWAP2 POP POP JUMP JUMPDEST PUSH0 DUP2 SWAP1 POP SWAP2 SWAP1 POP JUMP JUMPDEST PUSH2 0x3A2 DUP2 PUSH2 0x390 JUMP JUMPDEST DUP3 MSTORE POP POP JUMP JUMPDEST PUSH0 DUP2 MLOAD SWAP1 POP SWAP2 SWAP1 POP JUMP JUMPDEST PUSH0 DUP3 DUP3 MSTORE PUSH1 0x20 DUP3 ADD SWAP1 POP SWAP3 SWAP2 POP POP JUMP JUMPDEST DUP3 DUP2 DUP4 MCOPY PUSH0 DUP4 DUP4 ADD MSTORE POP POP POP JUMP JUMPDEST PUSH0 PUSH1 0x1F NOT PUSH1 0x1F DUP4 ADD AND SWAP1 POP SWAP2 SWAP1 POP JUMP JUMPDEST PUSH0 PUSH2 0x3EA DUP3 PUSH2 0x3A8 JUMP JUMPDEST PUSH2 0x3F4 DUP2 DUP6 PUSH2 0x3B2 JUMP JUMPDEST SWAP4 POP PUSH2 0x404 DUP2 DUP6 PUSH1 0x20 DUP7 ADD PUSH2 0x3C2 JUMP JUMPDEST PUSH2 0x40D DUP2 PUSH2 0x3D0 JUMP JUMPDEST DUP5 ADD SWAP2 POP POP SWAP3 SWAP2 POP POP JUMP JUMPDEST PUSH0 PUSH1 0x80 DUP3 ADD SWAP1 POP PUSH2 0x42B PUSH0 DUP4 ADD DUP8 PUSH2 0x399 JUMP JUMPDEST DUP2 DUP2 SUB PUSH1 0x20 DUP4 ADD MSTORE PUSH2 0x43D DUP2 DUP7 PUSH2 0x3E0 JUMP JUMPDEST SWAP1 POP PUSH2 0x44C PUSH1 0x40 DUP4 ADD DUP6 PUSH2 0x337 JUMP JUMPDEST DUP2 DUP2 SUB PUSH1 0x60 DUP4 ADD MSTORE PUSH2 0x45E DUP2 DUP5 PUSH2 0x3E0 JUMP JUMPDEST SWAP1 POP SWAP6 SWAP5 POP POP POP POP POP JUMP JUMPDEST PUSH0 PUSH1 0x20 DUP3 ADD SWAP1 POP DUP2 DUP2 SUB PUSH0 DUP4 ADD MSTORE PUSH2 0x481 DUP2 DUP5 PUSH2 0x3E0 JUMP JUMPDEST SWAP1 POP SWAP3 SWAP2 POP POP JUMP JUMPDEST PUSH32 0x4E487B7100000000000000000000000000000000000000000000000000000000 PUSH0 MSTORE PUSH1 0x22 PUSH1 0x4 MSTORE PUSH1 0x24 PUSH0 REVERT JUMPDEST PUSH0 PUSH1 0x2 DUP3 DIV SWAP1 POP PUSH1 0x1 DUP3 AND DUP1 PUSH2 0x4CD JUMPI PUSH1 0x7F DUP3 AND SWAP2 POP JUMPDEST PUSH1 0x20 DUP3 LT DUP2 SUB PUSH2 0x4E0 JUMPI PUSH2 0x4DF PUSH2 0x489 JUMP JUMPDEST JUMPDEST POP SWAP2 SWAP1 POP JUMP INVALID LOG2 PUSH5 0x6970667358 0x22 SLT KECCAK256 0xF9 KECCAK256 BLOBHASH SHL 0xCD ORIGIN PUSH20 0xA0770558639F1DEBEF215F3E80AAD3E5C43FD01B NUMBER PUSH8 0x2D058C64736F6C63 NUMBER STOP ADDMOD BYTE STOP CALLER "
		},
		"gasEstimates": {
			"creation": {
				"codeDepositCost": "261600",
				"executionCost": "infinite",
				"totalCost": "infinite"
			},
			"external": {
				"getValue()": "351",
				"myByteImage()": "2403",
				"negativeNumber()": "2469",
				"nftImage()": "infinite",
				"number()": "2446",
				"userDetail()": "infinite"
			}
		},
		"methodIdentifiers": {
			"getValue()": "20965255",
			"myByteImage()": "1c2e2d2e",
			"negativeNumber()": "aca20a5b",
			"nftImage()": "e38bc077",
			"number()": "8381f58a",
			"userDetail()": "e153270e"
		}
	},
	"abi": [
		{
			"inputs": [],
			"name": "getValue",
			"outputs": [
				{
					"internalType": "uint8",
					"name": "",
					"type": "uint8"
				}
			],
			"stateMutability": "pure",
			"type": "function"
		},
		{
			"inputs": [],
			"name": "myByteImage",
			"outputs": [
				{
					"internalType": "bytes32",
					"name": "",
					"type": "bytes32"
				}
			],
			"stateMutability": "view",
			"type": "function"
		},
		{
			"inputs": [],
			"name": "negativeNumber",
			"outputs": [
				{
					"internalType": "int256",
					"name": "",
					"type": "int256"
				}
			],
			"stateMutability": "view",
			"type": "function"
		},
		{
			"inputs": [],
			"name": "nftImage",
			"outputs": [
				{
					"internalType": "string",
					"name": "",
					"type": "string"
				}
			],
			"stateMutability": "view",
			"type": "function"
		},
		{
			"inputs": [],
			"name": "number",
			"outputs": [
				{
					"internalType": "int256",
					"name": "",
					"type": "int256"
				}
			],
			"stateMutability": "view",
			"type": "function"
		},
		{
			"inputs": [],
			"name": "userDetail",
			"outputs": [
				{
					"internalType": "uint256",
					"name": "id",
					"type": "uint256"
				},
				{
					"internalType": "string",
					"name": "name",
					"type": "string"
				},
				{
					"internalType": "uint8",
					"name": "age",
					"type": "uint8"
				},
				{
					"internalType": "string",
					"name": "place",
					"type": "string"
				}
			],
			"stateMutability": "view",
			"type": "function"
		}
	]
}